:020000040800F2
:1000000000000120910700085D0400087D0400083D
:1000100000000000000000000000000000000000E0
:1000200000000000000000000000000000000000D0
:10003000000000000000000000000000750700083C
:1000400000000000000000000000000000000000B0
:1000500000000000000000000000000000000000A0
:100060000000000000000000000000000000000090
:100070000000000000000000000000000000000080
:100080000000000000000000000000000000000070
:100090000000000000000000000000000000000060
:1000A0000000000000000000000000000000000050
:1000B0000000000000000000000000000000000040
:1000C0000000000000000000000000000000000030
:0C00D00000000000DD040008FD04000832
:1000E000A3F5803A704700BF174B002B08BF134B96
:1000F0009D46FFF7F5FF00218B460F461348144A33
:10010000121A01F0BFF80E4B002B00D098470D4B90
:10011000002B00D098470020002104000D000D485E
:10012000002802D00C48AFF3008001F04FF9200006
:10013000290000F04BF800F0B9FD00BF00000800F6
:10014000000000000000000000000000840000200B
:10015000F8010020000000000000000080B584B01D
:1001600000AF786007F10F031A460121786800F0AC
:10017000ACFCFB7B184600F00DF80346FB7307F15F
:100180000F031A460121786800F068FC00BF1037A1
:10019000BD4680BD80B483B000AF0346FB71FB79E0
:1001A0000133094A13441B7803F00303002B04D0E6
:1001B000FB7983F02003DBB200E0FB7918460C37B3
:1001C000BD4680BC704700BF0021000880B500AF6D
:1001D00000F01AF8094B0A229A60084B1422DA60E0
:1001E000074800F001FF4FF47A7000F0D1FB0D21B9
:1001F000044800F01DF900BFF2E700BF0000002036
:10020000382000080008024080B500AF00F04EF82A
:1002100000F068F800F012F800F058F8054B1B6881
:10022000054AA2FB03239B09184600F07FFB00BF91
:1002300080BD00BF14000020D34D621080B500AF18
:100240000121002000F068FA02220221154800F086
:100250007FF802220321134800F07AF807220221D6
:10026000104800F098F8072203210E4800F093F898
:100270004FF40031012000F04FFA4FF416510A48B4
:1002800000F0CEFB0C21084800F0B7FB064800F058
:100290004FFC054800F0A0FB034800F05AFC00BFEB
:1002A00080BD00BF000002400044004080B500AFA8
:1002B0000421002000F030FA01220D21024800F054
:1002C00047F800BF80BD00BF0008024080B500AF06
:1002D00000F01CFA262000F0F5F9252000F0F2F9D4
:1002E00000BF80BD80B500AF0121002000F014FAEE
:1002F00002220921144800F02BF802220A21124898
:1003000000F026F8072209210F4800F044F80722E0
:100310000A210D4800F03FF81021022000F0FCF9FE
:100320004FF41651094800F07BFB0C21074800F000
:1003300064FB064800F0FCFB044800F04DFB03485A
:1003400000F007FC00BF80BD00000240001001402B
:1003500080B487B000AFF860B9607A60FB681B6852
:100360007B61BB685B00032202FA03F3DB431A469E
:100370007B6913407B61BB685B007A6802FA03F318
:100380007A6913437B61FB687A691A6000BF1C3786
:10039000BD4680BC704780B489B000AFF860B960DA
:1003A0007A600823FB770423BB77FB7FBA689A4205
:1003B00007D9FA7FBB68B3FBF2F101FB02F29B1A8B
:1003C00000E0BB68BB61FB7FBA689A4203D2FB685E
:1003D00020331B6802E0FB6824331B687B61BB7F12
:1003E000BA6902FB03F30F2202FA03F3DB437A69D3
:1003F00013407B61BB7FBA6902FB03F37A6802FAA0
:1004000003F37A6913437B61FB7FBA689A4205D292
:10041000FB6820331A467B69136004E0FB682433D1
:100420001A467B69136000BF2437BD4680BC704705
:1004300080B483B000AF786039607B6814331B6888
:1004400001213A6801FA02F211467A6814324B40EF
:10045000136000BF0C37BD4680BC704780B500AF4D
:10046000034A0449044800F059F800BFFDE700BF03
:1004700044200008502000080010014080B594B0CE
:1004800002AF114A1149124800F048F800237B647A
:1004900015E07B6C9A000F497B6C51F82330381DB6
:1004A000009313460C4A402100F0D6FD3B1D1A462E
:1004B0000649074800F032F87B6C01337B647B6CA3
:1004C000352BE6D900BFFDE75C200008502000086E
:1004D00000100140000000087020000880B500AF47
:1004E000054B1B6803F02003002B02D00248FFF7E6
:1004F00035FE00BF80BD00BF0010014080B500AFD9
:10050000054B1B6803F02003002B02D00248FFF7C5
:1005100025FE00BF80BD00BF0044004080B584B010
:1005200000AFF860B9607A60FB68084A934203D074
:10053000FB68074A934204D17A68B968F86800F00A
:1005400045F800BF1037BD4680BD00BF0010014018
:100550000044004080B596B002AF78607B68BB6411
:10056000174B9B685B42BA6C1344BB640023FB646B
:100570001BE0BB6C1B781A46BB6C1B7807F10800AC
:1005800001930092BB6C0F4A402100F065FD0C4BBB
:100590005B6807F108020C491846FFF7BFFFBB6C08
:1005A0000133BB64FB6C0133FB64054BDB68FA6C05
:1005B0009A42DED300BF00BF5037BD4680BD00BFAA
:1005C0000000002090200008AC20000880B584B016
:1005D00000AFF860B9607A60B86800F0C7FA034607
:1005E000BA681946F86800F039FA184B1B681846C3
:1005F00000F0BCFA0146154B1B681A46F86800F07B
:100600002DFA134B1B78002B0ED0F86800F024F85D
:100610000E4B1B68184600F0A9FA01460B4B1B68ED
:100620001A46F86800F01AFA786800F09FFA034654
:100630007A681946F86800F011FA064A0121F8684C
:1006400000F00CFA00BF1037BD4680BD100000203E
:1006500000000020B420000880B584B000AF7860AE
:10066000786800F00EF8F860F86800F07FFA03464A
:10067000FA681946786800F0F1F900BF1037BD46F6
:1006800080BD80B483B000AF78607B68084A934235
:1006900005D07B68074A934203D1074B02E0074B22
:1006A00000E0074B18460C37BD4680BC704700BFC2
:1006B0000044004000100140B8200008C02000089D
:1006C000C820000880B485B000AF78607B685B0903
:1006D000FB607B6803F01F03BB60FB6803F13823FA
:1006E00040339B001A680121BB6801FA03F31846E6
:1006F000FB6803F1382340339B00194642EA0003AC
:100700000B6000BF1437BD4680BC704780B500AF9A
:1007100000F080F800BF80BD80B483B000AF786087
:1007200039607B68002B06D10F4B1A680E493B6875
:1007300013430B6012E07B68012B06D10B4B1A6848
:100740000A493B6813430B6008E07B68022B05D124
:10075000074B1A6806493B6813430B6000BF0C3710
:10076000BD4680BC704700BF303802404038024070
:100770004438024080B400AF044B1B680133034A85
:10078000136000BFBD4680BC704700BF84000020DE
:1007900080B588B000AF1A4A1A4BD31A7B611A4B46
:1007A0003B61184BFB600023FB610AE03A69FB697F
:1007B0001A44F968FB690B4412781A70FB6901331B
:1007C000FB61FA697B699A42F0D3104A104BD31A45
:1007D000BB600F4B7B600023BB6107E07A68BB699D
:1007E000134400221A70BB690133BB61BA69BB684C
:1007F0009A42F3D3FFF7EAFC00BF2037BD4680BD25
:100800008400002000000020E8220008F8010020F9
:100810008400002080B500AF00F002F800BF80BD6A
:1008200080B400AF62B600BFBD4680BC7047000018
:1008300080B483B000AF786039604FF0FF33184662
:100840000C37BD4680BC704780B483B000AF786081
:10085000012318460C37BD4680BC704780B483B076
:1008600000AF78604FF0FF3318460C37BD4680BCB0
:10087000704780B485B000AFF860B9607A6000233B
:1008800018461437BD4680BC704780B483B000AFB3
:10089000786000BFFDE780B485B000AFF860B96054
:1008A0007A607B6818461437BD4680BC704780B5B7
:1008B00084B000AFF860B9607A60FB68012B05D1A5
:1008C0007B68BA681946044800F0C8F84FF0FF3357
:1008D00018461037BD4680BD0010014080B485B079
:1008E00000AF78600F4B1B68002B02D10D4B0E4AF6
:1008F0001A600C4B1B68FB600A4B1A687B68134438
:100900006A46934201D900BFFDE7064B1A687B682F
:100910001344044A1360FB6818461437BD4680BC74
:10092000704700BF88000020F801002080B582B029
:1009300000AF7860786800F004F800BF0837BD4663
:1009400080BD80B483B000AF78607B68013BB3F1B9
:10095000807F10D20A4A7B68013B1360094B00225A
:100960001A60094B07221A60084B1B68074A43F4B8
:100970008043136000E000BF0C37BD4680BC704769
:1009800014E000E018E000E010E000E0443802402D
:1009900080B485B000AF78600E4B1B68FB60FA68CE
:1009A0007B681344BB60BA68FB689A4205D200BFFB
:1009B000084B1B68FA689A42FAD300BF054B1B68C4
:1009C000BA689A42FAD800BF00BF1437BD4680BC4F
:1009D000704700BF8400002080B483B000AF78600F
:1009E0007B680C331B687A680C3243F40053136045
:1009F00000BF0C37BD4680BC704780B483B000AFE9
:100A0000786039607B680C331A687B680C33194650
:100A10003B6813430B6000BF0C37BD4680BC70477A
:100A200080B485B000AF786039607B6808331B689C
:100A3000FB60094B1A683B681B01B2FBF3F31B0117
:100A4000FB607B6808331A46FB68136000BF1437ED
:100A5000BD4680BC704700BF1400002080B586B042
:100A600000AFF860B9607A607B683B6100237B610E
:100A70000AE03B695A1C3A611B781946F86800F095
:100A80000CF87B6901337B617A69BB689A42F0D3C9
:100A900000BF00BF1837BD4680BD80B483B000AF33
:100AA00078600B46FB707B6804331A46FB78136052
:100AB00000BF7B681B6803F04003002BF9D000BF28
:100AC00000BF0C37BD4680BC704790B587B000AF03
:100AD000F860B9607A607B683B6100237B610AE063
:100AE0003C69631C3B61F86800F00EF80346237014
:100AF0007B6901337B617A69BB689A42F0D300BF9E
:100B000000BF1C37BD4690BD80B483B000AF786095
:100B100000BF7B681B6803F02003002BF9D07B68C3
:100B200004331B68DBB218460C37BD4680BC7047E7
:100B300080B483B000AF78607B680C331B687A6840
:100B40000C3243F02003136000BF0C37BD4680BC5D
:100B5000704780B582B000AF786000217868FFF7F9
:100B60009CFF00BF0837BD4680BD00BF034613F899
:100B7000012B002AFBD1181A013870470000000031
:100B800001F0FF01102A2BDB10F0070F08D010F83E
:100B9000013B013A8B422DD010F0070F42B3F6D142
:100BA000F0B441EA012141EA014122F007047FF05B
:100BB00000070023F0E80256083C85EA010586EAB2
:100BC000010685FA47F5A3FA87F586FA47F6A5FAEE
:100BD00087F68EB9EED1F0BC01F0FF0102F00702FA
:100BE00032B110F8013B013A83EA010313B1F8D1A5
:100BF0000020704701387047002D06BF3546033886
:100C0000073815F0010F07D1013015F4807F02BFBE
:100C1000013015F4C03F01300138F0BC704700BF0F
:100C20000348044B834202D0034B03B1184770477B
:100C30008400002084000020000000000548064BCE
:100C40001B1AD90F01EBA301491002D0034B03B1CA
:100C50001847704784000020840000200000000036
:100C600010B5064C237843B9FFF7DAFF044B13B1F4
:100C70000448AFF300800123237010BD8C000020D6
:100C8000000000007022000808B5054B1BB10549A3
:100C90000548AFF30080BDE80840FFF7CFBF00BFB5
:100CA00000000000900000207022000808B5064BEC
:100CB000044613B10021AFF30080044B1B6803B15D
:100CC00098472046FFF7E1FD00000000E00100200A
:100CD000002310B50446C0E90033C0E90433836043
:100CE00081814366C2818361194608225C3000F02D
:100CF000C9FA054B6362054BA362054BE362054BE2
:100D00002462236310BD00BFC1100008E710000873
:100D10001F11000843110008024A0349034800F06C
:100D2000EFB800BF20000020DD1D000830000020CB
:100D300041680C4B994210B5044601D001F04EF8C1
:100D4000A168094B994202D0204601F047F8E168BA
:100D5000064B994204D02046BDE8104001F03EB851
:100D600010BD00BFA8000020100100207801002065
:100D700008B54B6EDA0705D48B899B0502D4886DC4
:100D800000F04DFB002008BD08B54B6EDA0705D416
:100D90008B899B0502D4886D00F047FB002008BDBD
:100DA00010B50B4B0B4C0C4A1A6020460022042154
:100DB000FFF78EFF04F1680001220921FFF788FF89
:100DC00004F1D0000222BDE810401221FFF780BFDD
:100DD000E0010020A8000020190D0008014800F0E3
:100DE0001EBB00BFEF010020014800F01EBB00BF8A
:100DF000EF010020F8B50746FFF7F0FF234B1B6813
:100E00000BB9FFF7CDFF224ED6E90134013B0FD5D8
:100E10003568002D37D14FF4D671384600F072FB9B
:100E2000044628BB3060FFF7DFFF0C233B601BE06C
:100E3000B4F90C50D5B9174BE36004F1580065665E
:100E400000F0E9FAFFF7D0FFC4E90155C4E9045501
:100E50002560A5610822294604F15C0000F012FA21
:100E6000C4E90D55C4E912552046F8BD6834CDE7F4
:100E70000423056043600C30A0604FF4D072294613
:100E800000F000FA34603668BEE700BFE0010020E1
:100E9000200000200100FFFF10B50446FFF79EFF71
:100EA000236A1BB1BDE81040FFF79EBF044B2362CD
:100EB000044B1B68002BF5D1FFF772FFF2E700BF70
:100EC000310D0008E001002008B5FFF787FFBDE8FD
:100ED0000840024A0249002000F012B82000002019
:100EE000710D000808B5044A0449002000F008F814
:100EF000BDE80840FFF778BF20000020890D0008FA
:100F00002DE9F8430746884614460026D4E90195A2
:100F1000B9F1010905D52468002CF7D13046BDE8A8
:100F2000F883AB89012B07D9B5F90E30013303D013
:100F300029463846C04706436835E9E7036A70B575
:100F4000846805460E460BB9FFF7A6FF636EDB0704
:100F500005D4A389980502D4A06D00F060FAA38996
:100F6000190702D52369002B35D12146284600F008
:100F700033F980B34FF0FF35636EDA0705D4A389E8
:100F80009B0502D4A06D00F050FA284670BD002BDE
:100F900015DB23685A1C22601970A36816F8011F1C
:100FA000013BA3600029F2D1002B16DA22460A2168
:100FB000284600F0CAF80130DCD00A25DCE7A26937
:100FC0009A4201DC0A29E4D12246284600F0BDF805
:100FD0000130E2D1CEE7013EDFE723685A1C2260F0
:100FE0000A221A70E9E70000024B01461868FFF771
:100FF000A5BF00BF2C00002008B430B5141E9CB063
:10100000054608DA8B2303604FF0FF301CB0BDE8C3
:10101000304001B070474FF40273ADF8143014BF84
:1010200004F1FF332346049307934FF6FF730291B5
:101030000691ADF816301F9A20AB02A9019300F07B
:10104000B5FB431CBCBF8B232B60002CDED0029B66
:1010500000221A70DAE700000CB430B5174B0C1EF2
:101060001D689DB008DA8B232B604FF0FF301DB058
:10107000BDE8304002B070474FF40273ADF8143051
:1010800014BF04F1FF332346049307934FF6FF7315
:1010900002900690ADF81630209A21AB02A928469E
:1010A000019300F083FB431CBCBF8B232B60002CFF
:1010B000DDD0029B00221A70D9E700BF2C0000206F
:1010C00010B50C46B1F90E1000F05CF90028ABBF6A
:1010D000636DA3891B1823F48053ACBF6365A381A0
:1010E00010BD002070472DE9F0411F468B89DB05BC
:1010F00005460C46164605D5B1F90E10022300220E
:1011000000F02EF9A389B4F90E1023F48053A381C3
:1011100032463B462846BDE8F04100F045B910B5DF
:101120000C46B1F90E1000F01BF9431CA38915BF42
:10113000606523F4805343F48053A38118BFA381D7
:1011400010BDB1F90E1000F0A5B8F8B50E46144662
:10115000054618B1036A0BB9FFF79EFEA369A360A9
:10116000A3891A0701D5236943B92146284600F00F
:1011700033F818B14FF0FF373846F8BD23682269BD
:10118000981A6369F6B28342374605DC2146284641
:1011900000F024FE0028EDD1A368013BA360236882
:1011A0005A1C22601E706269431C9A4204D0A389B3
:1011B000DB07E1D50A2EDFD12146284600F00EFEDE
:1011C0000028D9D0D6E70000024B0A46014618682D
:1011D000FFF7BBBF2C00002038B5294B0546186827
:1011E0000C4618B1036A0BB9FFF756FEB4F90C3080
:1011F000190722D4DA0607D409222A6043F04003F3
:10120000A3814FF0FF3033E0580712D5616B41B135
:1012100004F14403994202D0284600F007F9002364
:101220006363A38923F02403A381002363602369FC
:101230002360A38943F00803A38123694BB9A389E1
:1012400003F42073B3F5007F03D02146284600F055
:1012500027FEB4F90C3013F001020AD00022A2607C
:1012600062695242A261226942B913F08000C5D17D
:1012700038BD990758BF6269A260F4E70020F7E71C
:101280002C00002002440346934200D1704703F82B
:10129000011BF9E738B5064D0023044608462B60CC
:1012A000FFF7DCFA431C02D12B6803B1236038BD81
:1012B000E4010020294B1B68834270B504464BD0E3
:1012C000C369ABB1DB686BB10025E369DB685959D1
:1012D00000293BD10435802DF7D1E3692046D96838
:1012E00000F0A4F8E369196811B1204600F09EF8F7
:1012F000616911B1204600F099F8E16911B1204609
:1013000000F094F8216B11B1204600F08FF8616B6A
:1013100011B1204600F08AF8A16B11B1204600F00F
:1013200085F8A16C11B1204600F080F8616C11B114
:10133000204600F07BF8E16A11B1204600F076F813
:10134000236A4BB12046BDE8704018470E6820461E
:1013500000F06CF83146BBE770BD00BF2C000020E8
:1013600038B5074D04460846114600222A601A4641
:10137000FFF77FFA431C02D12B6803B1236038BD0D
:10138000E401002038B5074D044608461146002206
:101390002A601A46FFF77FFA431C02D12B6803B17B
:1013A000236038BDE401002038B5074D04460846E7
:1013B000114600222A601A46FFF779FA431C02D12F
:1013C0002B6803B1236038BDE401002070B50D4DDA
:1013D0000D4C641BA4100026A64209D10B4D0C4CE9
:1013E00000F03AFF641BA4100026A64205D170BD90
:1013F00055F8043B98470136EEE755F8043B98470B
:101400000136F2E7000000000000000000000000CC
:101410000000000070477047704770477047704782
:1014200001207047012070477047704738B5054666
:10143000002941D051F8043C0C1F002BB8BFE41820
:1014400000F0D0F81D4A136833B963601460284671
:10145000BDE8384000F0CCB8A34208D92068211874
:101460008B4201BF19685B6809182160EDE71A46D5
:101470005B680BB1A342FAD911685018A0420BD196
:1014800020680144501883421160E0D118685B68FD
:10149000536008441060DAE702D90C232B60D6E7CA
:1014A000206821188B4204BF19685B68636004BF21
:1014B000091821605460CAE738BD00BFF40100205C
:1014C00070B50F4E0C463168054611B900F060FD4D
:1014D00030602146284600F05BFD431C03D14FF0ED
:1014E000FF34204670BDC41C24F00304A042F8D091
:1014F000211A284600F04CFD0130F2D1EFE700BF81
:10150000F0010020F8B5CD1C25F0030508350C2DA1
:1015100038BF0C25002D064601DBA94203D90C2358
:1015200033600020F8BD2E4F00F05CF83B681C468D
:1015300034BB29463046FFF7C3FF431C04464DD158
:101540003C682146002940D1002C41D02368304618
:10155000E71800F01DFD87423AD123680335ED1AE4
:1015600025F0030508350C2D38BF0C2529463046DB
:10157000FFF7A6FF01302BD023682B4423600EE039
:101580002268521B1ED40B2A16D96119A34225606A
:1015900018BF5960636808BF396062514B603046BC
:1015A00000F026F804F10B00231D20F00700C21AFA
:1015B0001CBF1B1AA350B5E76268A3420CBF3A6078
:1015C0005A60ECE723466468B2E70C464968B9E71D
:1015D0000C233360304600F00BF8A2E70560DEE72D
:1015E000F40100200148FFF71ABF00BFEC01002002
:1015F0000148FFF71ABF00BFEC0100202DE9F047BA
:101600008E681F46BE420B6882460C4690462DD817
:10161000B1F90C2012F4906F26D06569096905EBC9
:101620004505A3EB010905EBD5757B1C4B446D10FB
:101630009D4238BF1D46530527D52946FFF762FF57
:10164000064660B321694A4600F0B2FCA38923F440
:10165000906343F08003A381266165614E44A5EB4E
:1016600009052660A5603E46BE4200D93E46206878
:101670003246414600F050FCA3689B1BA3602368E0
:10168000334423600020BDE8F0872A4600F09EFC2A
:1016900006460028E0D121695046FFF7C7FE0C231B
:1016A000CAF80030A38943F04003A3814FF0FF3014
:1016B000E9E793682DE9F74FD2F800A080460C4681
:1016C0001746002B57D1002000237B6003B0BDE8F4
:1016D000F08FDAF80030DAF804B001930AF1080A62
:1016E000A6682068BBF1000FF3D0B3452ED3B4F940
:1016F0000C2012F4906F29D021696569A0EB0109D3
:1017000005EB450505EBD57509F101006D10584451
:10171000854238BF0546530531D529464046FFF777
:10172000F1FE0646002835D04A46216900F040FC0B
:10173000A28922F4906242F08002A2812661656152
:101740004E44A5EB09052660A5605E465E4528BFB0
:101750005E4632460199206800F0DEFBA268921BCB
:10176000A260226832442260BA68A2EB0B03BB601D
:10177000002BAED1A7E7002301939B46B0E72A4692
:10178000404600F023FC06460028D7D12169404698
:10179000FFF74CFE0C23C8F80030A38943F0400348
:1017A000A3810023BB604FF0FF308DE72DE9F04FA0
:1017B00098468B891B069DB007460D46144610D5EA
:1017C0000B6973B94021FFF79DFE2860286130B98D
:1017D0000C233B604FF0FF301DB0BDE8F08F40237D
:1017E0006B610023099320238DF82930CDF80C80FC
:1017F0003023DFF89C818DF82A304FF00109234611
:101800009A4613F8012B0AB1252AF9D1BAEB040B39
:101810000BD05B46224629463846FFF7EFFE0130E3
:1018200000F0A780099A5A4409929AF80030002BD8
:1018300000F09F8000234FF0FF32CDE905230AF12D
:10184000010A049307938DF853301A9354460522E6
:1018500014F8011B4E48FFF793F9049AD8B9D00643
:1018600044BF20238DF85330110744BF2B238DF83C
:1018700053309AF800302A2B15D0079A544600208E
:101880004FF00A0C214611F8013B303B092B4BD994
:10189000B0B1079214E0A0EB080309FA03F3134375
:1018A0000493A246D2E7039B191D1B680391002BEA
:1018B000BBBF5B4242F0020207930793B8BF04929A
:1018C00023782E2B0AD163782A2B32D1039B1A1D41
:1018D0001B68039243EAE37302340593DFF8B4A074
:1018E000217803225046FFF74BF938B1049BA0EB57
:1018F0000A004022824013430134049314F8011B70
:1019000025488DF828100622FFF73AF9002836D02E
:10191000224B1BBB039B073323F0070308330393BE
:10192000099B334409936AE70CFB02320C46012001
:10193000A8E700230134059319464FF00A0C20460E
:1019400010F8012B303A092A03D9002BC6D0059193
:10195000C4E70CFB012104460123F0E703AB00932D
:101960002A460F4B04A93846AFF30080421C0646B6
:10197000D6D1AB895B063FF52DAF09982CE703ABB9
:1019800000932A46064B04A9384600F079F8EDE7A3
:1019900001220008072200080B22000800000000B6
:1019A000FD1500082DE9F047164698468A680B6930
:1019B000DDF820909342B8BF1346336091F843207E
:1019C00007460C460AB1013333602368990642BFCB
:1019D000336802333360256815F0060506D104F13B
:1019E000190AE36832689B1AAB4226DC94F843304C
:1019F0002268003B18BF012392062BD404F1430256
:101A000041463846C84701301ED02368226903F09A
:101A10000603042B02BFE5683368ED1AA3680CBF08
:101A200025EAE57500259342C4BF9B1AED180026F0
:101A30001A34B5421AD1002008E00123524641462B
:101A40003846C847013003D14FF0FF30BDE8F0877A
:101A50000135C6E7E1185A1C302081F843002244C2
:101A600094F8451082F843100233C7E70123224659
:101A700041463846C8470130E6D00136D9E7000074
:101A80002DE9FF470F7E0C9D782F914680460C462E
:101A90009A4601F1430207D8622F0AD8002F00F0BE
:101AA000E080582F00F0BB8004F1420684F84270B9
:101AB0003AE0A7F16303152BF6D801A151F823F002
:101AC000191B00082D1B0008A91A0008A91A0008F4
:101AD000A91A0008A91A00082D1B0008A91A000855
:101AE000A91A0008A91A0008A91A0008491C000828
:101AF000BD1B0008FF1B0008A91A0008A91A00084E
:101B00006B1C0008A91A0008BD1B0008A91A0008D0
:101B1000A91A0008071C00082B681A1D1B682A60F8
:101B200004F1420684F842300123ABE023682968BF
:101B30001F0601F10400286001D50D6803E05E0670
:101B4000FBD5B1F900506168002D7ADA2D2000290B
:101B500084F84300A1602DDA5E486D420A231646E0
:101B6000B5FBF3F103FB1157C75D06F8017D2F4666
:101B7000BB420D46F4D9082B0BD12368DF0708D5EB
:101B8000236961689942DEBF302306F8013C06F103
:101B9000FF36921B2261CDF800A04B4603AA2146D6
:101BA0004046FFF7FFFE013071D14FF0FF3004B027
:101BB000BDE8F08723F004032360CDE72B6820689D
:101BC000191D2960050601D51D6802E04106FBD5F7
:101BD0001D8840486F2F14BF0A230823002184F872
:101BE00043106668A660002EB9DB216821F004016D
:101BF0002160002DB3D1002EB1D11646BBE723687A
:101C000043F0200323603448782784F8457029681E
:101C100023680E1D2E601E0603D50D6804E02D48B6
:101C2000F3E75D06F9D50D88D90744BF43F02003DB
:101C300023600DB11023D1E7236823F02003236034
:101C4000F8E724480A23CCE72B6826686169181D49
:101C5000286035061B6801D5196002E07006FBD5C7
:101C6000198000232361164695E72B681A1D2A6008
:101C70001E68626800213046FEF782FF08B1801BB3
:101C8000606063682361002384F8433083E723693D
:101C9000324649464046D047013086D023689B07EC
:101CA00014D4E068039B9842B8BF18467FE701232D
:101CB000324649464046D04701303FF476AF0135C1
:101CC000E36803995B1AAB42F1DCEAE7002504F113
:101CD0001906F5E71222000823220008B1F90C20AA
:101CE000F8B5170705460C4656D44B68002B02DCA6
:101CF0000B6C002B3DDDE66A002E3AD0002312F477
:101D000080522F68216A2B6025D0626DA389580705
:101D100005D56368D21A636B0BB1236CD21A216AA2
:101D2000E66A00232846B047411C24D000236360A4
:101D300023692360A389DA0400D56065616B2F6095
:101D4000B9B104F14403994202D02846FFF76EFB73
:101D5000002363630DE001232846B047461C02467A
:101D6000D4D12B68002BD1D01D2B01D0162B2AD11A
:101D70002F6000202EE02A68B4F90C3042B11D2AF1
:101D800001D0162A21D10023636023692360D5E79F
:101D9000626022692260CEE70F69002FE9D09307C5
:101DA0000E6808BF4B690F6018BF0023F61B8B60DD
:101DB000002EDEDD216AD4F828C033463A46284694
:101DC000E047002807DCB4F90C3043F04003A3815E
:101DD0004FF0FF30F8BD0744361AE9E738B50B6914
:101DE00005460C4613B90025284638BD18B1036ACC
:101DF0000BB9FFF751F8B4F90C30002BF3D0626E39
:101E0000D00704D4990502D4A06DFFF708FB28463B
:101E10002146FFF763FF636EDA070546E4D4A38922
:101E20009B05E1D4A06DFFF700FBDDE7014620B97B
:101E3000044A05490548FFF763B8054B1868FFF7E2
:101E4000CDBF00BF20000020DD1D000830000020B5
:101E50002C00002070B50C46B1F90E10002996B088
:101E600015461E460DDAA38913F0800F4FF00001CE
:101E700014BF40234FF48063002031602B6016B004
:101E800070BD6A4600F062F80028ECDB019901F4AD
:101E90007041A1F50053594259414FF48063EBE77B
:101EA0008B89F7B59D0706460C4607D504F1470315
:101EB000236023610123636103B0F0BD01AB6A4677
:101EC000FFF7C8FF009F054639463046FFF71AFB6B
:101ED00048B9B4F90C309A05EED423F0030343F06B
:101EE0000203A381E2E7A389206043F08003A3817A
:101EF000019BC4E904075BB1B4F90E10304600F051
:101F000037F828B1A38923F0030343F00103A38129
:101F1000A3891D43A581CFE7884210B501EB0204D8
:101F200002D98442234607D8431EA14208D011F8A3
:101F3000012B03F8012FF8E7024401468A4200D141
:101F400010BD13F8014D02F8014DF7E738B5074D04
:101F500000230446084611462B60FEF769FC431C2B
:101F600002D12B6803B1236038BD00BFE40100201B
:101F700038B5064D0023044608462B60FEF764FC86
:101F8000431C02D12B6803B1236038BDE40100205B
:101F900038B5064D0023044608462B60FEF79EFC2C
:101FA000431C02D12B6803B1236038BDE40100203B
:101FB0000A44914200F1FF3300D1704710B511F887
:101FC000014B03F8014F9142F9D110BD2DE9F041C9
:101FD000804615460C4621B9BDE8F0411146FFF791
:101FE00091BA2AB9FFF722FA00242046BDE8F08111
:101FF00000F01AF88542064602D8B5EB500FF4D827
:1020000029464046FFF77EFA07460028ECD0B54245
:102010002A46214628BF3246FFF7CAFF21464046DE
:10202000FFF704FA3C46E0E751F8043C181F002B88
:10203000BCBF0B58C018704768656C6C6F20776F19
:10204000726C64006E6D695F68616E646C657200CD
:102050006972715F6C69737400000000686172647A
:102060006661756C745F68616E646C657200000017
:10207000666C617368202D3E207372616D3A20306A
:1020800078256C58202D3E203078256C58000000B3
:10209000616464723A202570096465636D3A202595
:1020A0006409636861723A202563000044554D500D
:1020B000000000000A000000555341525431000056
:1020C0005553415254320000554E4B4E4F574E20FF
:1020D0004348414E4E454C003A2000003E410C41E1
:1020E0001141274136410341064115410F410E413F
:1020F000264113412941024119410A410B41000087
:1021000000202020202020202020282828282820C7
:1021100020202020202020202020202020202020BF
:102120002088101010101010101010101010101027
:102130001004040404040404040404101010101017
:1021400010104141414141410101010101010101E1
:102150000101010101010101010101011010101033
:1021600010104242424242420202020202020202B3
:102170000202020202020202020202021010101007
:10218000200000000000000000000000000000002F
:10219000000000000000000000000000000000003F
:1021A000000000000000000000000000000000002F
:1021B000000000000000000000000000000000001F
:1021C000000000000000000000000000000000000F
:1021D00000000000000000000000000000000000FF
:1021E00000000000000000000000000000000000EF
:1021F00000000000000000000000000000000000DF
:1022000000232D302B2000686C4C00656667454626
:102210004700303132333435363738394142434460
:1022200045460030313233343536373839616263F0
:10223000646566003E410C4111412741364103412E
:10224000064115410F410E412641134129410241EA
:1022500019410A410B410000F8B500BFF8BC08BCA9
:102260009E467047F8B500BFF8BC08BC9E46704754
:102270001000000000000000017A5200027C0E01F4
:102280001B0C0D001000000018000000E0E8FFFF2C
:102290001000000000470E001000000000000000C9
:1022A000017A5200027C0E011B0C0D002C00000074
:1022B00018000000CCE8FFFF9E00000000510E1047
:1022C00084048503860287015BC7C6C5C40E004D22
:1022D0000E00420E0053C7C6C5C40E000000000029
:0822E00000DEFF7F0100000099
:1022E8000000000000100140000000000A0000008B
:1022F800D82000080024F40020000000000000009E
:102308000000000003000000A800002030000020AA
:1023180000000000A8000020100100207801002023
:1023280000000000000000000000000000000000A5
:102338000000000000000000000000000000000095
:102348000000000000000000000000000000000085
:10235800000000000000000000000000890C0008D8
:04236800610C0008FC
:040000050800079157
:00000001FF
