:020000040800F2
:100000000000012031070008010400081D04000859
:1000100000000000000000000000000000000000E0
:1000200000000000000000000000000000000000D0
:10003000000000000000000000000000150700089C
:1000400000000000000000000000000000000000B0
:1000500000000000000000000000000000000000A0
:100060000000000000000000000000000000000090
:100070000000000000000000000000000000000080
:100080000000000000000000000000000000000070
:100090000000000000000000000000000000000060
:1000A0000000000000000000000000000000000050
:1000B0000000000000000000000000000000000040
:1000C0000000000000000000000000000000000030
:0C00D000000000007D0400089D040008F2
:1000E00010B5054C237833B9044B13B10448AFF372
:1000F00000800123237010BD840000200000000058
:100100001C1F000808B5034B1BB103490348AFF39C
:10011000008008BD00000000880000201C1F0008AF
:1001200080B584B000AF786007F10F031A46012153
:10013000786800F098FCFB7B184600F00DF8034649
:10014000FB7307F10F031A460121786800F054FC95
:1001500000BF1037BD4680BD80B483B000AF0346FA
:10016000FB71FB790133094A13441B7803F0030345
:10017000002B04D0FB7983F02003DBB200E0FB7995
:1001800018460C37BD4680BC704700BF6B1D000889
:1001900080B500AF00F00AF8034800F087FD4FF487
:1001A0007A7000F0C3FBF7E7C81C000880B500AF09
:1001B00000F04EF800F068F800F012F800F058F87F
:1001C000054B1B68054AA2FB03239B09184600F058
:1001D0007BFB00BF80BD00BF14000020D34D621028
:1001E00080B500AF0121002000F066FA0222022152
:1001F000154800F07FF802220321134800F07AF836
:1002000007220221104800F098F8072203210E4827
:1002100000F093F84FF40031012000F04DFA4FF454
:1002200016510A4800F0CAFB0C21084800F0B3FB45
:10023000064800F04BFC054800F09CFB034800F02A
:1002400056FC00BF80BD00BF0000024000440040DB
:1002500080B500AF0421002000F02EFA01220D210C
:10026000024800F047F800BF80BD00BF0008024010
:1002700080B500AF00F01AFA262000F0F3F925202F
:1002800000F0F0F900BF80BD80B500AF0121002073
:1002900000F012FA02220921144800F02BF8022281
:1002A0000A21124800F026F8072209210F4800F021
:1002B00044F807220A210D4800F03FF810210220DF
:1002C00000F0FAF94FF41651094800F077FB0C21C1
:1002D000074800F060FB064800F0F8FB044800F017
:1002E00049FB034800F003FC00BF80BD0000024052
:1002F0000010014080B487B000AFF860B9607A6048
:10030000FB681B687B61BB685B00032202FA03F396
:10031000DB431A467B6913407B61BB685B007A68EC
:1003200002FA03F37A6913437B61FB687A691A6006
:1003300000BF1C37BD4680BC704780B489B000AF99
:10034000F860B9607A600823FB770423BB77FB7FF2
:10035000BA689A4207D9FA7FBB68B3FBF2F101FB96
:1003600002F29B1A00E0BB68BB61FB7FBA689A424D
:1003700003D2FB6820331B6802E0FB6824331B6850
:100380007B61BB7FBA6902FB03F30F2202FA03F31E
:10039000DB437A6913407B61BB7FBA6902FB03F3DD
:1003A0007A6802FA03F37A6913437B61FB7FBA68C8
:1003B0009A4205D2FB6820331A467B69136004E039
:1003C000FB6824331A467B69136000BF2437BD469F
:1003D00080BC704780B483B000AF786039607B68C0
:1003E00014331B6801213A6801FA02F211467A6857
:1003F00014324B40136000BF0C37BD4680BC7047C1
:1004000080B500AF024A0349034800F057F8FEE701
:10041000D41C0008E01C00080010014080B594B016
:1004200002AF114A1149124800F048F800237B64DA
:1004300015E07B6C9A000F497B6C51F82330381D16
:10044000009313460C4A402100F038FC3B1D1A462D
:100450000649074800F032F87B6C01337B647B6C03
:10046000352BE6D9FEE700BFEC1C0008E01C0008B5
:100470000010014000000008001D000880B500AF1A
:10048000054B1B6803F02003002B02D00248FFF746
:1004900047FE00BF80BD00BF0010014080B500AF27
:1004A000054B1B6803F02003002B02D00248FFF726
:1004B00037FE00BF80BD00BF0044004080B584B05F
:1004C00000AFF860B9607A60FB68084A934203D0D5
:1004D000FB68074A934204D17A68B968F86800F06B
:1004E00045F800BF1037BD4680BD00BF0010014079
:1004F0000044004080B596B002AF78607B68BB6472
:10050000174B9B685B42BA6C1344BB640023FB64CB
:100510001BE0BB6C1B781A46BB6C1B7807F108000C
:1005200001930092BB6C0F4A402100F0C7FB0C4BBB
:100530005B6807F108020C491846FFF7BFFFBB6C68
:100540000133BB64FB6C0133FB64054BDB68FA6C65
:100550009A42DED300BF00BF5037BD4680BD00BF0A
:1005600000000020201D00083C1D000880B584B05C
:1005700000AFF860B9607A60B86800F0C5FA034669
:10058000BA681946F86800F037FA184B1B68184625
:1005900000F0BAFA0146154B1B681A46F86800F0DD
:1005A0002BFA134B1B78002B0ED0F86800F024F8C0
:1005B0000E4B1B68184600F0A7FA01460B4B1B6850
:1005C0001A46F86800F018FA786800F09DFA0346B9
:1005D0007A681946F86800F00FFA064A0121F868AF
:1005E00000F00AFA00BF1037BD4680BD10000020A1
:1005F00000000020441D000880B584B000AF786082
:10060000786800F00EF8F860F86800F07DFA0346AC
:10061000FA681946786800F0EFF900BF1037BD4658
:1006200080BD80B483B000AF78607B68084A934295
:1006300005D07B68074A934203D1074B02E0074B82
:1006400000E0074B18460C37BD4680BC704700BF22
:100650000044004000100140481D0008501D0008E3
:10066000581D000880B485B000AF78607B685B09D6
:10067000FB607B6803F01F03BB60FB6803F138235A
:1006800040339B001A680121BB6801FA03F3184646
:10069000FB6803F1382340339B00194642EA00030C
:1006A0000B6000BF1437BD4680BC704780B500AFFB
:1006B00000F080F800BF80BD80B483B000AF7860E8
:1006C00039607B68002B06D10F4B1A680E493B68D6
:1006D00013430B6012E07B68012B06D10B4B1A68A9
:1006E0000A493B6813430B6008E07B68022B05D185
:1006F000074B1A6806493B6813430B6000BF0C3771
:10070000BD4680BC704700BF3038024040380240D0
:100710004438024080B400AF044B1B680133034AE5
:10072000136000BFBD4680BC704700BFA000002022
:1007300080B588B000AF1A4A1A4BD31A7B611A4BA6
:100740003B61184BFB600023FB610AE03A69FB69DF
:100750001A44F968FB690B4412781A70FB6901337B
:10076000FB61FA697B699A42F0D3104A104BD31AA5
:10077000BB600F4B7B600023BB6107E07A68BB69FD
:10078000134400221A70BB690133BB61BA69BB68AC
:100790009A42F3D3FFF7FCFC00BF2037BD4680BD73
:1007A00084000020000000201C1F0008B80000206A
:1007B0008400002080B500AF00F002F800BF80BDCB
:1007C00080B400AF62B600BFBD4680BC7047000079
:1007D00080B483B000AF786039604FF0FF331846C3
:1007E0000C37BD4680BC704780B483B000AF7860E2
:1007F000012318460C37BD4680BC704780B483B0D7
:1008000000AF78604FF0FF3318460C37BD4680BC10
:10081000704780B485B000AFF860B9607A6000239B
:1008200018461437BD4680BC704780B483B000AF13
:100830007860FEE780B485B000AFF860B9607A6098
:100840007B6818461437BD4680BC704780B584B0BD
:1008500000AFF860B9607A60FB68012B05D17B6856
:10086000BA681946044800F0C7F84FF0FF3318463D
:100870001037BD4680BD00BF0010014080B485B078
:1008800000AF78600E4B1B68002B02D10C4B0D4A59
:100890001A600B4B1B68FB60094B1A687B6813449A
:1008A0006A46934200D9FEE7054B1A687B681344F9
:1008B000034A1360FB6818461437BD4680BC704776
:1008C000A4000020B800002080B582B000AF78609E
:1008D000786800F004F800BF0837BD4680BD80B4DA
:1008E00083B000AF78607B68013BB3F1807F10D2AA
:1008F0000A4A7B68013B1360094B00221A60094BCE
:1009000007221A60084B1B68074A43F480431360B0
:1009100000E000BF0C37BD4680BC704714E000E02B
:1009200018E000E010E000E04438024080B485B0F8
:1009300000AF78600E4B1B68FB60FA687B6813445D
:10094000BB60BA68FB689A4205D200BF084B1B68BF
:10095000FA689A42FAD300BF054B1B68BA689A42FC
:10096000FAD800BF00BF1437BD4680BC704700BF37
:10097000A000002080B483B000AF78607B680C33A7
:100980001B687A680C3243F40053136000BF0C37C5
:10099000BD4680BC704780B483B000AF78603960DA
:1009A0007B680C331A687B680C3319463B68134329
:1009B0000B6000BF0C37BD4680BC704780B485B06B
:1009C00000AF786039607B6808331B68FB60094BB7
:1009D0001A683B681B01B2FBF3F31B01FB607B68E9
:1009E00008331A46FB68136000BF1437BD4680BC4D
:1009F000704700BF1400002080B586B000AFF860DB
:100A0000B9607A607B683B6100237B610AE03B69E7
:100A10005A1C3A611B781946F86800F00CF87B699B
:100A200001337B617A69BB689A42F0D300BF00BF93
:100A30001837BD4680BD80B483B000AF78600B46E8
:100A4000FB707B6804331A46FB78136000BF7B6839
:100A50001B6803F04003002BF9D000BF00BF0C3728
:100A6000BD4680BC704790B587B000AFF860B960F4
:100A70007A607B683B6100237B610AE03C69631C10
:100A80003B61F86800F00EF8034623707B69013380
:100A90007B617A69BB689A42F0D300BF00BF1C3704
:100AA000BD4690BD80B483B000AF786000BF7B6866
:100AB0001B6803F02003002BF9D07B6804331B680C
:100AC000DBB218460C37BD4680BC704780B483B09B
:100AD00000AF78607B680C331B687A680C3243F097
:100AE0002003136000BF0C37BD4680BC704780B543
:100AF00082B000AF786000217868FFF79CFF00BFEC
:100B00000837BD4680BD00BF034613F8012B002AFD
:100B1000FBD1181A013870470000000000000000E7
:100B200001F0FF01102A2BDB10F0070F08D010F89E
:100B3000013B013A8B422DD010F0070F42B3F6D1A2
:100B4000F0B441EA012141EA014122F007047FF0BB
:100B500000070023F0E80256083C85EA010586EA12
:100B6000010685FA47F5A3FA87F586FA47F6A5FA4E
:100B700087F68EB9EED1F0BC01F0FF0102F007025A
:100B800032B110F8013B013A83EA010313B1F8D105
:100B90000020704701387047002D06BF35460338E6
:100BA000073815F0010F07D1013015F4807F02BF1F
:100BB000013015F4C03F0130F0BC0138704700BF70
:100BC00002440346934200D1704703F8011BF9E742
:100BD00070B50E46054618B183690BB900F078FA76
:100BE000AB69AC6813B9284600F072FA2C4B9C42F2
:100BF00020D16C68636EDB0705D4A389980502D405
:100C0000A06D00F003FBA38919071DD52369DBB193
:100C1000013EA36816F8011F013BA36039BB002BFE
:100C200038DA22460A21284600F07CF8013011D03B
:100C30000A2511E01B4B9C4201D1AC68DAE71A4B44
:100C40009C4208BFEC68D5E72146284600F0BCF876
:100C50000028DDD04FF0FF35636EDA0705D4A38995
:100C60009B0502D4A06D00F0D2FA284670BD002B7F
:100C700004DAA2699A4206DC0A2904D023685A1CC5
:100C800022601970C5E72246284600F04BF8013073
:100C9000BFD1DFE723680A255A1C22601D70DBE7FD
:100CA000901E0008B01E0008701E0008024B01468E
:100CB0001868FFF78DBF00BF180000200CB430B5D6
:100CC000174B0C1E1D689DB008DA8B232B604FF06C
:100CD000FF301DB0BDE8304002B070474FF40273E2
:100CE000ADF8143014BF04F1FF3323460493079387
:100CF0004FF6FF7302900690ADF81630209A21ABA4
:100D000002A92846019300F023FC431CBCBF8B239F
:100D10002B60002CDDD0029B00221A70D9E700BFA7
:100D200018000020F8B50E461446054618B1836930
:100D30000BB900F0CDF9214B9C422BD16C68A36913
:100D4000A360A3891A072FD523696BB32369206891
:100D5000C01A6369F6B28342374604DC214628464E
:100D600000F022F930BBA368013BA36023685A1C42
:100D700022601E7063690130834204D0A389DB07BF
:100D800006D50A2E04D12146284600F00DF988B96F
:100D90003846F8BD0A4B9C4201D1AC68CFE7094BFD
:100DA0009C4208BFEC68CAE72146284600F00CF8D0
:100DB0000028CBD04FF0FF37EAE700BF901E0008B5
:100DC000B01E0008701E0008324B70B51D68064644
:100DD0000C4625B1AB6913B9284600F079F92E4BC2
:100DE0009C420FD16C68A389B4F90C2019072CD44C
:100DF000DD0611D40923336042F04003A3814FF094
:100E0000FF303EE0254B9C4201D1AC68EBE7244B20
:100E10009C4208BFEC68E6E7580712D5616B41B108
:100E200004F14403994202D0304600F057FA0023FF
:100E30006363A38923F02403A381002363602369F0
:100E40002360A38943F00803A38123694BB9A389D5
:100E500003F42073B3F5007F03D02146304600F041
:100E6000FDF9A089B4F90C2010F001030AD0002389
:100E7000A36063695B42A361236943B910F08000FA
:100E8000BAD170BD810758BF6369A360F4E7002041
:100E9000F7E700BF18000020901E0008B01E0008F1
:100EA000701E00088A89F8B5054610070C4657D40D
:100EB0004B68002B04DC0B6C002B01DC0020F8BD20
:100EC000E66A002EFAD0002312F480522F682B60BD
:100ED00032D0606DA3895A0705D56368C01A636B69
:100EE0000BB1236CC01A00230246E66A216A284629
:100EF000B047431CA38906D129681D292CD8294A4B
:100F0000CA40D60728D500226260D904226922602F
:100F100004D5421C01D12B6803B96065616B2F6059
:100F20000029CBD004F14403994202D0284600F0B6
:100F3000D5F900206063C2E7216A01232846B04743
:100F4000411CC7D12B68002BC4D01D2B01D0162B00
:100F500001D12F60B2E7A38943F04003A381AEE73C
:100F60000F69002FAAD093070E6808BF4B690F6066
:100F700018BF0023F61B8B60002E9FDD216AD4F87A
:100F800028C033463A462846E047002806DCA389B5
:100F900043F04003A3814FF0FF3090E70744361A37
:100FA000EAE700BF0100402038B50B6905460C4652
:100FB00013B90025284638BD18B183690BB900F074
:100FC00087F8144B9C421BD16C68B4F90C30002B91
:100FD000EFD0626ED00704D4990502D4A06D00F062
:100FE00015F928462146FFF75DFF636EDA070546CF
:100FF000E0D4A3899B05DDD4A06D00F008F9D9E702
:10100000054B9C4201D1AC68DFE7044B9C4208BF12
:10101000EC68DAE7901E0008B01E0008701E000899
:10102000002310B50446C0E90033C0E904338360EF
:1010300081814366C2818361194608225C30FFF7D3
:10104000BFFD054B6362054BA362054BE362054B95
:101050002462236310BD00BF991A0008BB1A000860
:10106000F31A0008171B0008014900F0AFB800BFD1
:10107000A90F000870B568224D1E55430E4605F1B4
:10108000740100F095F9044640B10021C0E9001652
:101090000C30A06005F16802FFF792FD204670BD9C
:1010A000014800F0B3B800BFA9000020014800F0DB
:1010B000AEB800BFA9000020014800F0A7B800BFEB
:1010C000AA000020014800F0A2B800BFAA0000203A
:1010D00010B50446FFF7F0FFA3691BB1BDE810404F
:1010E000FFF7F0BFC4E912332365134B134A1B68A3
:1010F000A262A34204BF0123A361204600F020F8AE
:101100006060204600F01CF8A060204600F018F84F
:101110000022E06004216068FFF782FFA0680122DE
:101120000921FFF77DFFE06802221221FFF778FF17
:101130000123A361D2E700BF6C1E000869100008FC
:10114000F8B50746FFF7ACFF1E4B1E68B36913B92D
:101150003046FFF7BDFF4836D6E90134013B03D5E1
:1011600033680BB33668F7E7B4F90C50D5B9164BB2
:10117000E36004F15800656600F047F8FFF796FF5A
:10118000C4E90155C4E904552560A5610822294632
:1011900004F15C00FFF714FDC4E90D55C4E91255D4
:1011A0002046F8BD6834D9E704213846FFF762FFCE
:1011B000044630600028D5D1FFF778FF0C233B6050
:1011C000EEE700BF6C1E00080100FFFF2DE9F843A9
:1011D0000646884600F148040027D4E90195B9F194
:1011E000010905D52468002CF7D13846BDE8F883FD
:1011F000AB89012B07D9B5F90E30013303D029464D
:101200003046C04707436835E9E770477047704785
:1012100070B50E46B1F90E10002996B014461D4661
:1012200008DAB6F90C3000222A601A0610D44FF4FE
:1012300080630EE06A4600F095FC0028F1DB019A1D
:1012400002F47042A2F500535A425A412A60EEE776
:1012500040230020236016B070BD00008B8973B559
:101260009D0706460C4607D504F14703236023611A
:101270000123636102B070BD01AB6A46FFF7C8FF8E
:1012800000990546304600F093F848B9B4F90C309F
:101290009A05EFD423F0030343F00203A381E3E7AD
:1012A0000D4BB362A389206043F08003A381009BB0
:1012B0006361019B20615BB1B4F90E10304600F010
:1012C00063FC28B1A38923F0030343F00103A38146
:1012D000A0890543A581CDE76910000838B505460A
:1012E000002941D051F8043C0C1F002BB8BFE41872
:1012F00000F094FC1D4A136833B9636014602846FB
:10130000BDE8384000F090BCA34208D920682118FD
:101310008B4201BF19685B6809182160EDE71A4626
:101320005B680BB1A342FAD911685018A0420BD1E7
:1013300020680144501883421160E0D118685B684E
:10134000536001441160DAE702D90C232B60D6E721
:10135000206821188B4204BF19685B68636004BF72
:10136000091821605460CAE738BD00BFAC000020F6
:1013700070B50E4E0C463168054611B900F07CFB85
:1013800030602146284600F077FB431C0AD0C41C7D
:1013900024F00304A04207D0211A284600F06CFB79
:1013A000013001D14FF0FF34204670BDB000002065
:1013B0002DE9F041CD1C25F0030508350C2D38BF73
:1013C0000C25002D074601DBA94205D90C233B6003
:1013D00000263046BDE8F0812E4E00F01FFC336839
:1013E0001C4634BB29463846FFF7C2FF431C04465F
:1013F0004DD134682646002E40D123683146384608
:1014000004EB030800F038FB80453AD1216803352E
:101410006D1A25F0030508350C2D38BF0C2529461B
:101420003846FFF7A5FF01302BD023682B442360FB
:101430000EE02268521B1ED40B2A16D96119A34252
:10144000256018BF5960636808BF316062514B6006
:10145000384604F10B0600F0E7FB26F00706231DD3
:10146000F21AB6D09B1BA350B3E76268A3420CBF2D
:1014700032605A60ECE723466468B2E73446766827
:10148000B9E70C233B60384600F0CEFBA1E72560AE
:10149000DEE700BFAC0000202DE9F0478E689E42D9
:1014A00082460C4690461F4638D88A8912F4906FBF
:1014B00032D025680969A5EB0109656905EB450589
:1014C00005EBD57501334B446D109D4238BF1D4669
:1014D000530531D52946FFF76BFF064650B90C235B
:1014E000CAF80030A38943F04003A3814FF0FF30D6
:1014F000BDE8F08721694A4600F068FBA38923F420
:10150000906343F08003A381266165614E44A5EB9F
:1015100009052660A5603E46BE4200D93E462068C9
:101520003246414600F060FBA3689B1BA360236822
:10153000334423600020DBE72A4600F07BFB0646AD
:101540000028E1D121695046FFF7C8FEC7E7000037
:101550002DE9F04F98468B891B069DB007460D4636
:1015600014460ED50B6963B94021FFF721FF2860AF
:10157000286120B90C233B604FF0FF30D1E04023BD
:101580006B610023099320238DF82930CDF80C805E
:101590003023DFF8A8818DF82A304FF00109234667
:1015A0009A4613F8012B0AB1252AF9D1BAEB040B9C
:1015B0000BD05B46224629463846FFF76DFF0130C7
:1015C00000F0AA80099A5A4409929AF80030002B38
:1015D00000F0A28000234FF0FF32CDE905230AF18D
:1015E000010A049307938DF853301A935446052249
:1015F00014F8011B5148FFF793FA049AD8B9D006A2
:1016000044BF20238DF85330110744BF2B238DF89E
:1016100053309AF800302A2B15D0079A54460020F0
:101620004FF00A0C214611F8013B303B092B4ED9F3
:10163000B0B1079214E0A0EB080309FA03F31343D7
:101640000493A246D2E7039B191D1B680391002B4C
:10165000BBBF5B4242F0020207930793B8BF0492FC
:1016600023782E2B0CD163782A2B35D1039B1A1D9E
:101670001B680392002BB8BF4FF0FF330234059371
:10168000DFF8BCA0217803225046FFF749FA40B1A9
:101690004023A0EB0A0003FA00F0049B034301344B
:1016A000049314F8011B27488DF828100622FFF731
:1016B00037FA002838D0244B1BBB039B073323F099
:1016C000070308330393099B3344099367E70CFB33
:1016D00002320C460120A5E7002301340593194688
:1016E0004FF00A0C204610F8012B303A092A03D992
:1016F000002BC5D00591C3E70CFB01210446012353
:10170000F0E703AB00932A46104B04A93846AFF329
:101710000080421C0646D6D1AB895B063FF52CAF54
:1017200009981DB0BDE8F08F03AB00932A46074B24
:1017300004A9384600F07AF8EBE700BFD01E000895
:10174000D61E0008DA1E00080000000099140008E8
:101750002DE9F047164699468A680B69DDF8208026
:101760009342B8BF1346336091F8432007460C46B6
:101770000AB1013333602368990642BF33680233EC
:101780003360256815F0060506D104F1190AE368EF
:1017900032689B1AAB4226DC94F84320131E226861
:1017A00018BF012392062BD404F143024946384660
:1017B000C04701301ED02368E568326803F0060395
:1017C000042B08BFAD1AA36822690CBF25EAE57592
:1017D00000259342C4BF9B1AED1800261A34B54267
:1017E0001AD1002008E00123524649463846C04736
:1017F000013003D14FF0FF30BDE8F0870135C6E777
:10180000E1185A1C302081F84300224494F8451016
:1018100082F843100233C7E701232246494638467F
:10182000C0470130E6D00136D9E700002DE9FF4777
:101830000F7E0C9D782F914680460C469A4601F10A
:10184000430207D8622F0AD8002F00F0D880582F03
:1018500000F0A38004F1420584F842703AE0A7F159
:101860006303152BF6D801A151F823F0C518000821
:10187000D918000855180008551800085518000810
:1018800055180008D9180008551800085518000800
:101890005518000855180008E5190008091900082E
:1018A000C71900085518000855180008071A00083D
:1018B000551800080919000855180008551800089F
:1018C000CF1900082B681A1D1B682A6004F1420515
:1018D00084F842300123A3E020682968060601F15C
:1018E00004030AD50E682B60002E03DA2D237642FE
:1018F00084F843305E480A2319E00E682B6010F02C
:10190000400F18BF36B2EFE72B682068191D296019
:10191000010601D51E6802E04606FBD51E88544824
:101920006F2F0CBF08230A23002184F84310656839
:10193000A560002DA2BF216821F0040121600EB92D
:10194000002D4DD01546B6FBF3F103FB1167C75DC3
:1019500005F8017D3746BB420E46F4D9082B0BD162
:101960002368DE0708D5236961689942DEBF30230A
:1019700005F8013C05F1FF35521B2261CDF800A0AE
:101980004B4603AA21464046FFF7E2FE01304CD108
:101990004FF0FF3004B0BDE8F087354881F845705E
:1019A0002968236851F8046B29601D0614D5DF07E8
:1019B00044BF43F0200323601EB9236823F02003B3
:1019C00023601023B0E7236843F0200323607823CB
:1019D000284884F84530E3E7590648BFB6B2E6E741
:1019E0001546BBE72B6826686169181D2860350617
:1019F0001B6801D5196002E07006FBD51980002331
:101A000023611546BAE72B681A1D2A601D686268B3
:101A100000212846FFF784F808B1401B6060636826
:101A20002361002384F84330A8E723692A46494606
:101A30004046D0470130ABD023689B0713D4E06801
:101A4000039B9842B8BF1846A4E701233246494693
:101A50004046D04701309BD00135E36803995B1ABB
:101A6000AB42F2DCEBE7002504F11906F5E700BF15
:101A7000E11E0008F21E000838B5064D002304469A
:101A800008462B60FEF7FAFE431C02D12B6803B117
:101A9000236038BDB400002010B50C46B1F90E101B
:101AA00000F0F8F80028ABBF636DA3891B1823F47E
:101AB0008053ACBF6365A38110BD2DE9F0411F4683
:101AC0008B89DB0505460C46164605D5B1F90E1087
:101AD0000223002200F068F8A389B4F90E1023F461
:101AE0008053A38132463B462846BDE8F04100F0D2
:101AF00017B810B50C46B1F90E1000F055F8431C9C
:101B0000A38915BF606523F4805343F48053A381F8
:101B100018BFA38110BDB1F90E1000F013B800007A
:101B200038B5074D04460846114600222A601A4679
:101B3000FEF78CFE431C02D12B6803B1236038BD35
:101B4000B400002038B5064D0023044608462B603B
:101B5000FEF754FE431C02D12B6803B1236038BD4D
:101B6000B400002038B5074D00230446084611464E
:101B70002B60FEF72DFE431C02D12B6803B12360BE
:101B800038BD00BFB400002038B5064D0023044620
:101B900008462B60FEF728FE431C02D12B6803B1D8
:101BA000236038BDB400002038B5074D0446084610
:101BB000114600222A601A46FEF72BFE431C02D172
:101BC0002B6803B1236038BDB40000200A44914261
:101BD00000F1FF3300D1704710B511F8014B03F845
:101BE000014F9142F9D110BD884210B501EB0204BA
:101BF00002D98442234607D8431EA14208D011F8D7
:101C0000012B03F8012FF8E7024401468A4200D174
:101C100010BD13F8014D02F8014DF7E70148FFF739
:101C2000F5BA00BFA80000200148FFF7F0BA00BFD6
:101C3000A80000202DE9F041804614460E4621B947
:101C4000BDE8F0411146FFF7B3BB2AB9FFF746FBE9
:101C500025462846BDE8F08100F02EF8844207466C
:101C600002D8B4EB500F12D821464046FFF7A0FB34
:101C700005460028EDD0BC422246314628BF3A46F0
:101C8000FFF7A4FF31464046FFF728FBE1E7354662
:101C9000DFE7000038B5074D04460846114600222C
:101CA0002A601A46FEF7C6FD431C02D12B6803B119
:101CB000236038BDB400002051F8043C181F002BED
:101CC000BCBF0B58C018704768656C6C6F20776F8D
:101CD000726C64006E6D695F68616E646C65720041
:101CE0006972715F6C6973740000000068617264EE
:101CF0006661756C745F68616E646C65720000008B
:101D0000666C617368202D3E207372616D3A2030DD
:101D100078256C58202D3E203078256C5800000026
:101D2000616464723A202570096465636D3A202508
:101D30006409636861723A202563000044554D5080
:101D4000000000000A0000005553415254310000C9
:101D50005553415254320000554E4B4E4F574E2072
:101D60004348414E4E454C003A20000020202020A0
:101D7000202020202028282828282020202020203B
:101D8000202020202020202020202020881010101B
:101D90001010101010101010101010100404040473
:101DA00004040404040410101010101010414141E8
:101DB0004141410101010101010101010101010153
:101DC00001010101010101101010101010424242E6
:101DD0004242420202020202020202020202020223
:101DE0000202020202020210101010200000000085
:101DF00000000000000000000000000000000000E3
:101E000000000000000000000000000000000000D2
:101E100000000000000000000000000000000000C2
:101E200000000000000000000000000000000000B2
:101E300000000000000000000000000000000000A2
:101E40000000000000000000000000000000000092
:101E50000000000000000000000000000000000082
:101E60000000000000000000000000001C00002036
:101E70000000000000000000000000000000000062
:101E80000000000000000000000000000000000052
:101E90000000000000000000000000000000000042
:101EA0000000000000000000000000000000000032
:101EB0000000000000000000000000000000000022
:101EC0000000000000000000000000000000000012
:101ED000232D302B2000686C4C0065666745464713
:101EE0000030313233343536373839414243444596
:101EF0004600303132333435363738396162636405
:101F000065660000F8B500BFF8BC08BC9E46704787
:0C1F1000F8B500BFF8BC08BC9E46704746
:101F1C00000000000010014014000000140000003C
:101F2C00681D00080024F4001C00002000000000C4
:101F3C00901E0008B01E0008701E00080000000073
:101F4C000000000000000000000000000000000085
:101F5C000000000000000000000000000000000075
:101F6C000000000000000000000000000000000065
:101F7C000000000000000000000000000000000055
:101F8C000000000000000000000000000501000837
:041F9C00E100000858
:0400000508000731B7
:00000001FF
