:020000040800F2
:0800000000000120C502000808
:10000800A3F5803A704700BF174B002B08BF134B6E
:100018009D46FFF7F5FF00218B460F461348144A0B
:10002800121A00F0B5FC0E4B002B00D098470D4B70
:10003800002B00D098470020002104000D000D4837
:10004800002802D00C4800F01FFE00F075FD2000CB
:10005800290000F02FF800F0B9FA00BF00000800EE
:100068000000000000000000000000005C05002007
:10007800A4080020910C00088917000880B483B0F8
:1000880000AF0346FB71FB790133094A13441B781F
:1000980003F00303002B04D0FB7983F02003DBB2C9
:1000A80000E0FB7918460C37BD4680BC704700BF9E
:1000B8005C18000880B582B000AF00F01FF820235C
:1000C800BB803B1D1A4601210A4800F006FA3B791D
:1000D8001846FFF7D3FF03463B710D21064800F091
:1000E800B5F83B1D1A460121024800F0BFF900BFD0
:1000F800E7E700BF004400400008024080B500AFB9
:1001080000F038F800F002F800BF80BD80B500AFFD
:100118000121002000F0B0F802220221134800F06B
:1001280039F802220321114800F034F8072302228B
:1001380000210E4800F051F80723032200210B4844
:1001480000F04BF84FF40031012000F095F84FF41F
:100158001651074800F06CF90C21054800F055F9D4
:10016800034800F041F900BF80BD00BF0000024015
:100178000044004080B500AF0421002000F07CF866
:1001880001220D21024800F005F800BF80BD00BF24
:100198000008024080B487B000AFF860B9607A60A8
:1001A800FB681B687B61BB685B00032202FA03F3F0
:1001B800DB431A467B6913407B61BB685B007A6846
:1001C80002FA03F37A6913437B61FB687A691A6060
:1001D80000BF1C37BD4680BC704780B487B000AFF5
:1001E800F860B9607A603B60BB68002B03D1FB689C
:1001F80020331B6802E0FB6824331B687B617B6843
:100208009B000F2202FA03F3DB437A6913407B61F8
:100218007B689B003A6802FA03F37A6913437B61AF
:10022800BB68002B05D1FB6820331A467B69136035
:1002380007E0BB68012B04D1FB6824331A467B69AD
:10024800136000BF1C37BD4680BC704780B483B0C4
:1002580000AF786039607B6814331B6801213A6805
:1002680001FA02F211467A6814324B40136000BF5B
:100278000C37BD4680BC704780B483B000AF78604F
:1002880039607B68002B06D10A4B1A6809493B681C
:1002980013430B6008E07B68012B05D1064B1A68F5
:1002A80005493B6813430B6000BF0C37BD4680BC53
:1002B800704700BF303802404038024080B588B0EF
:1002C80000AF1A4A1A4BD31A7B611A4B3B61184B81
:1002D800FB600023FB610AE03A69FB691A44F9688C
:1002E800FB690B4412781A70FB690133FB61FA69E8
:1002F8007B699A42F0D3104A104BD31ABB600F4B5C
:100308007B600023BB6107E07A68BB691344002265
:100318001A70BB690133BB61BA69BB689A42F3D3EF
:10032800FFF7C8FE00BF2037BD4680BD5805002036
:1003380000000020A8190008A40800205C0500207F
:1003480080B483B000AF78604FF0FF3318460C37A5
:10035800BD4680BC704780B485B000AFF860B96016
:100368007A60002318461437BD4680BC704780B4B5
:1003780083B000AF786000BFFDE780B485B000AF00
:10038800F860B9607A607B6818461437BD4680BC4F
:10039800704780B485B000AFF860B9607A607B6858
:1003A80018461437BD4680BC704780B485B000AF8E
:1003B80078600B4B1B68002B02D1094B094A1A6065
:1003C800074B1B68FB60064B1A687B681344044A9A
:1003D8001360FB6818461437BD4680BC704700BFE1
:1003E8005C0500200000000080B483B000AF786096
:1003F8007B680C331B687A680C3243F40053136033
:1004080000BF0C37BD4680BC704780B483B000AFD6
:10041800786039607B680C331A687B680C3319463E
:100428003B6813430B6000BF0C37BD4680BC704768
:1004380080B485B000AF786039607B6808331B688A
:10044800FB60094B1A683B681B01B2FBF3F31B0105
:10045800FB607B6808331A46FB68136000BF1437DB
:10046800BD4680BC704700BF0000002080B586B044
:1004780000AFF860B9607A607B683B6100237B61FC
:100488000AE03B695A1C3A611B781946F86800F083
:100498000CF87B6901337B617A69BB689A42F0D3B7
:1004A80000BF00BF1837BD4680BD80B483B000AF21
:1004B80078600B46FB707B6804331A46FB78136040
:1004C80000BF7B681B6803F04003002BF9D000BF16
:1004D80000BF0C37BD4680BC704780B586B000AF02
:1004E800F860B9607A607B683B6100237B610BE050
:1004F800F86800F012F801463B695A1C3A61CAB222
:100508001A707B6901337B617A69BB689A42EFD3C1
:1005180000BF00BF1837BD4680BD80B483B000AFB0
:10052800786000BF7B681B6803F02003002BF9D0BC
:100538007B6804331B6818460C37BD4680BC70477F
:100548000348044B834202D0034B03B1184770475A
:100558005805002058050020000000000548064BFB
:100568001B1AD90F01EBA301491002D0034B03B1A9
:100578001847704758050020580500200000000063
:1005880010B5064C237843B9FFF7DAFF044B13B1D3
:100598000448AFF300800123237010BD60050020DC
:1005A800000000009C19000808B5054B1BB105495F
:1005B8000548AFF30080BDE80840FFF7CFBF00BF94
:1005C80000000000640500209C19000808B50021FF
:1005D800044600F0F7FA034B1B6803B1984720461E
:1005E800FFF7C5FEB4060020014BC0F8EC30704799
:1005F8005C180008024A0349034800F05BB900BFD1
:1006080008000020A1140008180000200C4B4168C5
:10061800994210B5044601D000F03EFFA168094B8D
:10062800994202D0204600F037FFE168064B994214
:1006380004D02046BDE8104000F02EBF10BD00BF1A
:100648007C050020E40500204C06002008B54B6E10
:10065800DA0702D48B899B0501D5002008BD886D77
:1006680000F09CFA002008BD08B54B6EDA0702D4EA
:100678008B899B0501D5002008BD886D00F096FA8E
:10068800002008BD2DE9F8432A4C2B4B2B48DFF8F6
:10069800B090DFF8B0802C4F1860002504230822A2
:1006A800294604F15C00294EE360C4E90055C4E919
:1006B8000455A5606566A56100F06AF9244B636777
:1006C8000822294604F1C400C4E90749C4E9098796
:1006D800C4E91A55C4E91E552567C4F8CC50C4F8B6
:1006E8008050E66200F054F91A4BC4F8DC30294611
:1006F80004F16803082204F59670C4F88430C4E94C
:100708002298C4E92476C4E93455C4E93855C4F8B4
:10071800D850C4F83451C4F8E85000F039F904F15D
:10072800D003C4E93C98C4E93E76C4F8EC30BDE88F
:10073800F88300BF7C050020B4060020FD050008F2
:10074800050900082D0900086D090008910900082D
:100758000900010012000200F8B506462A4800F018
:100768001DFA2A4B1B68002B43D0294FD7E90134C7
:10077800013B04D524E05A1C04F1680420D0B4F9E4
:100788000C50013B002DF6D1224BE36004F15800D8
:10079800656600F0FBF91C4800F008FAC4E9015549
:1007A800C4E904552560A5610822294604F15C00C6
:1007B80000F0EEF8C4E90C55C4E911552046F8BD1F
:1007C8003D680DB12F46D1E74FF4D671304600F0A1
:1007D800B1FB044680B10423056043600C30294610
:1007E800A06025464FF4D07200F0D2F83C602F4646
:1007F800BCE7FFF747FFB8E703483C6000F0D6F9CD
:100808000C233360DAE700BFD8060020B4060020C6
:10081800080000200100FFFF10B504460A4800F058
:10082800BDF9636B23B9094B094A1B68626323B19D
:10083800BDE81040044800F0B9B9FFF723FFBDE850
:100848001040014800F0B2B9D8060020B4060020D4
:1008580015060008014800F0A1B900BFD80600201D
:10086800014800F0A3B900BFD806002008B5054824
:1008780000F094F9BDE80840034A0449002000F05C
:1008880019B800BFD8060020080000205506000847
:1008980008B5054A0549002000F00CF8BDE80840F5
:1008A800034800F083B900BF080000207106000863
:1008B800D80600202DE9F84380460F4616464FF02B
:1008C8000009D6E90154013D11D4A389012B05F192
:1008D800FF3508D9B4F90E300133214603D040461C
:1008E800B84749EA00096B1C04F16804EDD1366881
:1008F800002EE6D14846BDE8F88300BF10B50C4687
:10090800B1F90E1000F0ECF8002803DB236D034466
:10091800236510BDA38923F48053A38110BD00BFB4
:10092800002070472DE9F0410C46B1F90C101F4624
:10093800CB05054616460BD421F48051A1813B46D0
:10094800B4F90E1032462846BDE8F04100F0DEB892
:10095800B4F90E100223002200F0ACF8B4F90C1020
:10096800EAE700BF10B50C46B1F90E1000F0A2F886
:10097800B4F90C30421C0EBF23F4805343F4805367
:100988002065A38110BD00BFB1F90E1000F052B868
:10099800830730B547D0541E002A3ED0CAB203465A
:1009A80001E0013C39D303F8012B9D07F9D1032C51
:1009B8002CD9CDB205EB05250F2C05EB054535D90E
:1009C800A4F1100222F00F0C03F1100EE6444FEAD6
:1009D800121C1A46156055609560D5601032724534
:1009E800F8D10CF1010214F00C0F03EB021204F021
:1009F8000F0C13D0ACF1040323F0030304331344A6
:100A080042F8045B9A42FBD10CF003042CB1C9B242
:100A18001C4403F8011B9C42FBD130BD64461346BD
:100A2800002CF4D1F9E703461446C0E71A46A44659
:100A3800E0E700BF38B5074D0022044608462A60A3
:100A4800FFF77EFC431C00D038BD2B68002BFBD081
:100A5800236038BDB8060020154B1B68834225D09B
:100A6800416C70B5054681B100268C593CB12146D0
:100A78002468284600F05CF9002CF8D1696C04362B
:100A8800802EF2D1284600F053F9A96B11B12846FF
:100A980000F04EF9E96C11B1284600F049F96B6B8A
:100AA8001BB12846BDE87040184770BD704700BFAD
:100AB8001400002038B50C46084D844611462046DF
:100AC8001A4600232B606446FFF745FC431C00D000
:100AD80038BD2B68002BFBD0236038BDB80600203A
:100AE80038B50C46084D8446114620461A46002360
:100AF8002B606446FFF741FC431C00D038BD2B68CF
:100B0800002BFBD0236038BDB806002038B50C4652
:100B1800084D8446114620461A4600232B60644639
:100B2800FFF737FC431C00D038BD2B68002BFBD0E7
:100B3800236038BDB806002070B50F4B0F4DAB428F
:100B4800A3EB050607D0B610002455F8043B013482
:100B58009847A642F9D800F011FF094D094B5E1BD2
:100B6800AB424FEAA60606D0002455F8043B0134F0
:100B78009847A642F9D870BD0000000000000000A8
:100B88000000000000000000704700BF704700BF71
:100B9800704700BF704700BF704700BF704700BF75
:100BA8000120704701207047704700BF704700BFA1
:100BB800024B13B1024800F067B87047000000000C
:100BC800891700082DE9F04F2D4BDFF8B88083B066
:100BD80083461868CDF804B00F46FFF7DFFFD8F852
:100BE80000609EB14FF001094FF0000A7468651E5D
:100BF8000CD4013406EB84047FB1D4F80031BB4235
:100C08000BD0013D6B1CA4F10404F5D11C4B1868F2
:100C180003B0BDE8F04FFFF7C9BF73682268013B16
:100C2800AB420CBF7560C4F800A0002AE9D0D6F822
:100C38008811D6F804B009FA05F30B420BD1904796
:100C480073685B4512D1D8F80030B342D9D01E463C
:100C5800002ECBD1DAE7D6F88C110B420BD1D4F8A1
:100C680080100198904773685B45ECD0D8F8006015
:100C7800002EBBD1CAE7D4F880009047E0E700BF58
:100C880038010020DC060020002301461A461846D9
:100C980000F08ABDF8B5234F0C46064600F0F0FB7D
:100CA800BB685D6825F0030505F6EF73191B21F491
:100CB8007F6121F00F01A1F58054B4F5805F07DB57
:100CC8000021304600F04AFDBB682B44984204D00E
:100CD800304600F0DBFB0020F8BD6142304600F0F2
:100CE8003DFD01300DD0104ABB682D1B45F00105B4
:100CF8005D60136830461B1B136000F0C7FB0120C2
:100D0800F8BD0021304600F029FDBA68831A0F2B80
:100D1800DEDD43F001035360044B03491B68C01A2E
:100D28000860D5E748010020E00600203C010020CB
:100D380000297DD0F8B50C46064600F0A1FB54F812
:100D4800042C794FA4F1080522F0010105EB010CF0
:100D5800B868DCF80430604523F0030300F08880AD
:100D6800D207CCF8043032D454F8082CAD1A114408
:100D7800AA6807F1080082426BD00CEB0304D4F890
:100D880004E0EC68D4601EF0010FA26000F08980D6
:100D980041F001036B60CCF80010B1F5007F24D25C
:100DA8007868CB080122490901338A40024357F881
:100DB80033107A6007EBC302083AC5E9021247F814
:100DC8003350CD603046BDE8F84000F05FBB0CEB17
:100DD80003025268D2072CD541F00103B1F5007F18
:100DE80044F8043CCCF80010DAD3B1F5206F4FEA90
:100DF800512358D28B0903F1390003F13802C3009B
:100E0800F818FB580838984203D166E09B68984266
:100E180004D05A6822F003028A42F7D8D868C5E994
:100E280002308560DD603046BDE8F84000F02EBB3A
:100E38007047194407F10800DCF80830834243D0B2
:100E4800DCF80C20DA60936041F001036B606950B4
:100E5800A3E70CEB03025268D0075FD40B44DCE92C
:100E68000212CA60916043F001026A60EB50A9E780
:100E78000B44D10707D454F8082CAD1A1344D5E90C
:100E88000212CA60916043F001026A60274ABD609D
:100E980012689A4296D8264B30461968FFF7FAFE30
:100EA80090E71944C8E7142B08D9542B1DD80B0B0D
:100EB80003F16F0003F16E02C300A1E703F15C00C8
:100EC80003F15B02C3009BE741F001033D617D61D3
:100ED800A860E8606B60695074E779689210012433
:100EE80004FA02F20A437A6099E7B3F5AA7F06D8B2
:100EF800CB0B03F1780003F17702C30080E740F2DF
:100F08005452934206D88B0C03F17D0003F17C0206
:100F1800C30075E74FF47E737E2271E741F0010349
:100F28006B60CCF800104DE748010020400100201C
:100F3800100700202DE9F04F01F10B05162D83B0A5
:100F4800064624D8102900F2BD8000F099FA102531
:100F580018220220B74F3A44A2F1080153688B4285
:100F680000F009815A68D96822F003021A449C6883
:100F7800E1608C60516841F001013046516003F135
:100F8800080400F083FA204603B0BDE8F08F35F07E
:100F9800070500F19780A94200F2948000F070FAEA
:100FA800B5F5FC7FC0F041816B0A00F08F80042BFF
:100FB80000F20C81AB0903F1390003F1380CC300CE
:100FC8009C4F3B44A3F108045B689C4206D10CE0AB
:100FD800002980F2CD80DB689C4206D05A6822F056
:100FE8000302511B0F29F3DD6046DFF84CC23C6950
:100FF800644500F0AB80626822F00302531B0F2B9C
:1010080000F32081002BC7E904CC80F20481B2F5FB
:10101800007F80F0B680D308796801334FEA521E0A
:10102800012202FA0EF20A4357F833E0C4F808E046
:1010380007EBC3010839E1607A6047F83340CEF81E
:101048000C40831001219940914245D8114206D1A4
:1010580020F003004900114200F10400FAD007EB28
:10106800C0094C468646D4F80C80444508D1B9E0FE
:10107800002B80F2C080D8F80C80444500F0B28084
:10108800D8F8042022F00302531B0F2BF0DD304662
:10109800D8E9026408EB050145F00105C8F80450D9
:1010A800F460A66043F00104C7E904114C60C1F87C
:1010B80008C0C1F80CC048F8023000F0E7F908F1A0
:1010C800080460E70C23336000245CE74FF40073E6
:1010D80040204FF03F0C73E7BC68636823F00308B7
:1010E800A84503D3A8EB05030F2B31DC534B1A6833
:1010F800534B196801312A4404EB080A00F04C816B
:1011080002F580520F3222F47F6222F00F0211465C
:101118003046009200F022FBB0F1FF3F009A484BA6
:10112800814605D0824540F2A680BC4200F0E580A9
:10113800BC68626822F00302AA42A2EB050301D34D
:101148000F2B05DC304600F0A1F9BDE77A6878E797
:10115800621943F0010345F0010565603046BA6045
:10116800536000F093F90834204603B0BDE8F08FCF
:10117800D9681A44FBE6D3689A427FF4F3AE02308A
:1011880033E7B2F5206F4FEA52236ED3142B00F2E7
:101198001F8103F15C01C9005B3307EB010E79582D
:1011A800AEF1080E8E4503D1F8E089688E4504D06B
:1011B8004B6823F003039342F7D8D1F80CE07A6820
:1011C800C4E9021ECEF80840CC603AE7142B73D964
:1011D800542B00F205812B0B03F16F0003F16E0C09
:1011E800C300EDE60EF1010E1EF0030F04F1080432
:1011F8007FF439AF6BE0424444465368D8F80C108A
:1012080043F00103536054F8083F3046D9608B60BF
:1012180000F03CF9B7E622443046536843F0010336
:101228005360083400F032F9ADE6E80805F1080229
:1012380090E600BF48010020500100201007002060
:101248003C010020611945F00105656043F0010586
:10125800C7E904113046C1F808C0C1F80CC04D6098
:10126800A35000F013F908348DE6930903F139010E
:10127800C900383391E7DFF8FCB1DBF800101144FE
:10128800CBF8001008463FD1C9F30B0CBCF1000F96
:101298003AD1D7F80890424442F00102C9F8042034
:1012A800754B1868884238BF1960744B18688842B3
:1012B80038BF19604C463DE703F15C0003F15B0C55
:1012C800C3007DE659F808394B4540F0D08010F04E
:1012D800030F00F1FF30F5D17B6823EA01037B603F
:1012E800490099423FF6F8AE19B9F5E649000EF102
:1012F800040E1942FAD07046B1E6DFF878B1DBF88F
:1013080000001044CBF80000196801311BBFA9EB9D
:101318000A031B18C3F80090CBF8003019F0070334
:1013280045D0C3F108018944C3F580514A440831C6
:10133800891AC1F30B0A514630460193009200F016
:101348000DFA421CDDE9002376D0A0EB090000EB82
:101358000A02DBF80030C7F8089042F001020AEBF5
:101368000301BC42C9F80420CBF8001098D0B8F1AA
:101378000F0F3FD96268A8F10C0323F0070302F0AE
:1013880001021A436260E21805200F2B506090603A
:1013980048D8D9F8042083E71032B8E69A104FF0FD
:1013A80001087B6808FA02F21A437A6008E709EB39
:1013B80002014942C1F30B0A51463046019300929B
:1013C80000F0CCF9431CDDE90023BED19A46C0E702
:1013D800542B13D8130B03F16F01C9006E33DCE6ED
:1013E800B3F5AA7F13D8EB0B03F1780003F1770C60
:1013F800C300E5E50123C9F80430A3E6B3F5AA7FE5
:1014080021D8D30B03F17801C9007733C5E640F240
:101418005452934221D8AB0C03F17D0003F17C0CAC
:10142800C300CDE504F108013046FFF781FCD7F889
:101438000890DBF80010ACE7083B1A44A2EB09025D
:101448004FF0000A85E740F254518B420BD8930CB9
:1014580003F17D01C9007C339FE64FF47E737F2042
:101468004FF07E0CACE54FF47E717E2395E67B68E9
:1014780036E700BFE00600200C0700200807002020
:101488000148FFF78BBB00BFCC0600200148FFF7DF
:101498008DBB00BFCC06002070B5002940D00646A1
:1014A8000C4610B1436B002B3DD0636EDD0733D47F
:1014B800A38998053AD52146304600F057F8E36AE3
:1014C800054633B1E169304698470028B8BF4FF068
:1014D800FF35A3891A063BD4216B41B104F14003BF
:1014E800994202D03046FFF723FC00232363616C46
:1014F80021B13046FFF71CFC00236364FFF7AAF90B
:10150800636E0022DB07A2811ED5A06DFFF742FBA8
:10151800FFF7A6F9284670BDB4F90C30002BCAD1E4
:101528000025284670BDFFF777F9BEE7A06DFFF7E5
:1015380035FBB4F90C30002BBDD1636ED907EFD45D
:10154800A06DFFF733FBEBE7A06DFFF72FFBDCE7A0
:1015580021693046FFF7ECFBBEE700BF024B0146AE
:101568001868FFF799BF00BF14000020B1F90C20DC
:10157800F8B5074610070C4646D4496842F400639C
:101588000029A3815CDDA56A002D3BD0002112F45F
:1015980080523E6839605FD1E16901233846A84727
:1015A800411C024668D0B4F90C30A56A5B0705D522
:1015B8006368D21A236B0BB1E36BD21AE16900237B
:1015C8003846A847451C49D13A681D2A3CD8304BB3
:1015D800134113F0010337D16360B4F90C3021696A
:1015E800216023F40061A181D9044ED4216B3E60AF
:1015F80041B104F14003994202D03846FFF798FB05
:10160800002323630020F8BD0E69002EFAD00D6870
:101618000E6090070CBF4B690023AD1B8B600CE07C
:10162800D4F824C0E1692B4632463846E047B0F189
:10163800000CA5EB0C05664406DD002DF0DCE1E7A7
:10164800E16B00299FDCDDE7B4F90C3043F040037F
:10165800A3814FF0FF30F8BD226DA7E7B4F90C3035
:101668002269226023F40062A281DB044FF00002A9
:101678006260BBD52065B9E73B68002B93D01D2B72
:1016880001D0162BE0D13E60BCE7002AAED1F1E7CD
:10169800FEFFBFDF38B50C46054608B1436B03B300
:1016A800B4F90C0088B1636EDB0701D481050FD54E
:1016B80028462146FFF75AFF636EDA07054602D42B
:1016C800A3899B0508D5284638BD0546284638BD58
:1016D800A06DFFF763FAEBE7A06DFFF767FA2846FE
:1016E80038BDFFF799F8DBE750B338B5174B1D68DD
:1016F80004460DB16B6BBBB1B4F90C0088B1636ED5
:10170800DB0701D4810513D528462146FFF72EFFB4
:10171800636EDA07054602D4A3899B050CD52846D3
:1017280038BD0546284638BD2846FFF775F8E3E773
:10173800A06DFFF733FAE7E7A06DFFF737FAEEE79A
:10174800034A04490448FFF7B5B800BF1400002055
:10175800080000209D1600081800002038B5074D25
:101768000022044608462A60FEF71FFE431C00D0EC
:1017780038BD2B68002BFBD0236038BDB80600208D
:1017880038B5074D074C2C1BA41005D0013C55F863
:10179800043D9847002CF9D1BDE8384000F0F4B872
:1017A80000000000000000002DE9F047DFF874A0F9
:1017B8000646DAF8000098460F469146FFF7EEF91C
:1017C800194B1C6824B365681F2D24DC5EB96B1C9B
:1017D8000235DAF80000636044F82570FFF7E6F98F
:1017E8000020BDE8F08704EB85010123C1F888904B
:1017F800D4F88821AB401A43022EC4F88821C1F8D6
:101808000881E4D1D4F88C211A43C4F88C21DEE78E
:10181800064C1C60D7E7DAF80000FFF7C7F94FF06D
:10182800FF30DEE738010020DC0600201407002026
:101838003E410C41114127413641034106411541C2
:101848000F410E41264113412941024119410A41E4
:101858000B410000002020202020202020202828C4
:101868002828282020202020202020202020202058
:101878002020202020881010101010101010101098
:1018880010101010100404040404040404040410C8
:101898001010101010104141414141410101010156
:1018A8000101010101010101010101010101010120
:1018B800101010101010424242424242020202022C
:1018C80002020202020202020202020202020202F0
:1018D80010101010200000000000000000000000A0
:1018E80000000000000000000000000000000000F0
:1018F80000000000000000000000000000000000E0
:1019080000000000000000000000000000000000CF
:1019180000000000000000000000000000000000BF
:1019280000000000000000000000000000000000AF
:10193800000000000000000000000000000000009F
:10194800000000000000000000000000000000008F
:1019580000000000000000003E410C4111412741F9
:1019680036410341064115410F410E4126411341BD
:101978002941024119410A410B410000F8B500BF55
:10198800F8BC08BC9E467047F8B500BFF8BC08BC58
:101998009E4670470000000068E6FF7F01000000D7
:1019A8000024F40000000000000000000300000014
:1019B8007C05002018000020000000007C050020A5
:1019C800E40500204C060020000000000000000094
:1019D80000000000000000000000000000000000FF
:1019E80000000000000000000000000000000000EF
:1019F80000000000000000000000000000000000DF
:101A080000000000000000000000000000000000CE
:101A180000000000000000000000000000000000BE
:101A280000000000000000000000000000000000AE
:101A3800000000000000000000000000000000009E
:101A4800000000000000000000000000000000008E
:101A580001000000000000000E33CDAB34126DE62B
:101A6800ECDE05000B000000000000000000000094
:101A7800000000000000000000000000000000005E
:101A8800000000000000000000000000000000004E
:101A9800000000000000000000000000000000003E
:101AA800000000000000000000000000000000002E
:101AB800000000000000000000000000000000001E
:101AC800000000000000000000000000000000000E
:101AD8000000000000000000D4060020FFFFFFFF08
:101AE80000000200000000000000000000000000EC
:101AF800480100204801002050010020500100202A
:101B080058010020580100206001002060010020D9
:101B18006801002068010020700100207001002089
:101B28007801002078010020800100208001002039
:101B380088010020880100209001002090010020E9
:101B48009801002098010020A0010020A001002099
:101B5800A8010020A8010020B0010020B001002049
:101B6800B8010020B8010020C0010020C0010020F9
:101B7800C8010020C8010020D0010020D0010020A9
:101B8800D8010020D8010020E0010020E001002059
:101B9800E8010020E8010020F0010020F001002009
:101BA800F8010020F80100200002002000020020B7
:101BB8000802002008020020100200201002002065
:101BC8001802002018020020200200202002002015
:101BD80028020020280200203002002030020020C5
:101BE8003802002038020020400200204002002075
:101BF8004802002048020020500200205002002025
:101C080058020020580200206002002060020020D4
:101C18006802002068020020700200207002002084
:101C28007802002078020020800200208002002034
:101C380088020020880200209002002090020020E4
:101C48009802002098020020A0020020A002002094
:101C5800A8020020A8020020B0020020B002002044
:101C6800B8020020B8020020C0020020C0020020F4
:101C7800C8020020C8020020D0020020D0020020A4
:101C8800D8020020D8020020E0020020E002002054
:101C9800E8020020E8020020F0020020F002002004
:101CA800F8020020F80200200003002000030020B2
:101CB8000803002008030020100300201003002060
:101CC8001803002018030020200300202003002010
:101CD80028030020280300203003002030030020C0
:101CE8003803002038030020400300204003002070
:101CF8004803002048030020500300205003002020
:101D080058030020580300206003002060030020CF
:101D1800680300206803002070030020700300207F
:101D2800780300207803002080030020800300202F
:101D380088030020880300209003002090030020DF
:101D48009803002098030020A0030020A00300208F
:101D5800A8030020A8030020B0030020B00300203F
:101D6800B8030020B8030020C0030020C0030020EF
:101D7800C8030020C8030020D0030020D00300209F
:101D8800D8030020D8030020E0030020E00300204F
:101D9800E8030020E8030020F0030020F0030020FF
:101DA800F8030020F80300200004002000040020AD
:101DB800080400200804002010040020100400205B
:101DC800180400201804002020040020200400200B
:101DD80028040020280400203004002030040020BB
:101DE800380400203804002040040020400400206B
:101DF800480400204804002050040020500400201B
:101E080058040020580400206004002060040020CA
:101E1800680400206804002070040020700400207A
:101E2800780400207804002080040020800400202A
:101E380088040020880400209004002090040020DA
:101E48009804002098040020A0040020A00400208A
:101E5800A8040020A8040020B0040020B00400203A
:101E6800B8040020B8040020C0040020C0040020EA
:101E7800C8040020C8040020D0040020D00400209A
:101E8800D8040020D8040020E0040020E00400204A
:101E9800E8040020E8040020F0040020F0040020FA
:101EA800F8040020F80400200005002000050020A8
:101EB8000805002008050020100500201005002056
:101EC8001805002018050020200500202005002006
:101ED80028050020280500203005002030050020B6
:101EE8003805002038050020400500204005002066
:081EF800B1050008890500088E
:041F0000B90B000811
:04000005080002C528
:00000001FF
