:020000040800F2
:10000000000001200507000800000000410400086E
:1000100000000000000000000000000000000000E0
:1000200000000000000000000000000000000000D0
:10003000000000000000000000000000A104000813
:1000400000000000000000000000000000000000B0
:1000500000000000000000000000000000000000A0
:100060000000000000000000000000000000000090
:100070000000000000000000000000000000000080
:100080000000000000000000000000000000000070
:100090000000000000000000000000000000000060
:1000A0000000000000000000000000000000000050
:1000B0000000000000000000000000000000000040
:1000C0000000000000000000000000000000000030
:0C00D00000000000E50400080505000821
:1000E000A3F5803A704700BF174B002B08BF134B96
:1000F0009D46FFF7F5FF00218B460F461348144A33
:10010000121A00F06CFF0E4B002B00D098470D4BDD
:10011000002B00D098470020002104000D000D485E
:10012000002802D00C48AFF3008000F0FDFF200053
:10013000290000F04BF800F061FD00BF000008004E
:100140000000000000000000000000007800002017
:10015000F0010020000000000000000080B584B025
:1001600000AF786007F10F031A460121786800F0AC
:1001700050FCFB7B184600F00DF80346FB7307F1BB
:100180000F031A460121786800F00CFC00BF1037FD
:10019000BD4680BD80B483B000AF0346FB71FB79E0
:1001A0000133094A13441B7803F00303002B04D0E6
:1001B000FB7983F02003DBB200E0FB7918460C37B3
:1001C000BD4680BC704700BF441D000880B500AF2D
:1001D00000F00CF80D21044800F01CF94FF47A707F
:1001E00000F066FB00BFF5E70008024080B500AFF5
:1001F00000F04EF800F068F800F012F800F058F83F
:10020000054B1B68054AA2FB03239B09184600F017
:100210001DFB00BF80BD00BF04000020D34D621055
:1002200080B500AF0121002000F03EFA0222022139
:10023000154800F07FF802220321134800F07AF8F5
:1002400007220221104800F098F8072203210E48E7
:1002500000F093F84FF40031012000F025FA4FF43C
:1002600016510A4800F080FB0C21084800F069FB99
:10027000064800F001FC054800F052FB034800F07E
:100280000CFC00BF80BD00BF0000024000440040E5
:1002900080B500AF0421002000F006FA01220D21F4
:1002A000024800F047F800BF80BD00BF00080240D0
:1002B00080B500AF00F0F2F9262000F0CBF9252040
:1002C00000F0C8F900BF80BD80B500AF012100205B
:1002D00000F0EAF902220921144800F02BF802226A
:1002E0000A21124800F026F8072209210F4800F0E1
:1002F00044F807220A210D4800F03FF8102102209F
:1003000000F0D2F94FF41651094800F02DFB0C21F2
:10031000074800F016FB064800F0AEFB044800F06A
:10032000FFFA034800F0B9FB00BF80BD00000240A7
:100330000010014080B487B000AFF860B9607A6007
:10034000FB681B687B61BB685B00032202FA03F356
:10035000DB431A467B6913407B61BB685B007A68AC
:1003600002FA03F37A6913437B61FB687A691A60C6
:1003700000BF1C37BD4680BC704780B489B000AF59
:10038000F860B9607A600823FB770423BB77FB7FB2
:10039000BA689A4207D9FA7FBB68B3FBF2F101FB56
:1003A00002F29B1A00E0BB68BB61FB7FBA689A420D
:1003B00003D2FB6820331B6802E0FB6824331B6810
:1003C0007B61BB7FBA6902FB03F30F2202FA03F3DE
:1003D000DB437A6913407B61BB7FBA6902FB03F39D
:1003E0007A6802FA03F37A6913437B61FB7FBA6888
:1003F0009A4205D2FB6820331A467B69136004E0F9
:10040000FB6824331A467B69136000BF2437BD465E
:1004100080BC704780B483B000AF786039607B687F
:1004200014331B6801213A6801FA02F211467A6816
:1004300014324B40136000BF0C37BD4680BC704780
:1004400080B594B002AF114A1149124800F06AF821
:1004500000237B6415E07B6C9A000F497B6C51F89C
:100460002330381D009313460C4A402100F03EFD16
:100470003B1D1A460649074800F054F87B6C0133CF
:100480007B647B6C352BE6D900BFFDE78C1C000834
:10049000A01C00080010014000000008AC1C00086F
:1004A00080B588B000AF0B4B1B680133094A13605D
:1004B000084B1B683846084A202100F017FD3B46D0
:1004C0001A460649064800F02DF800BF2037BD4601
:1004D00080BD00BF78000020CC1C0008A01C0008D4
:1004E0000010014080B500AF054B1B6803F02003EE
:1004F000002B02D00248FFF731FE00BF80BD00BFD5
:100500000010014080B500AF054B1B6803F02003CD
:10051000002B02D00248FFF721FE00BF80BD00BFC4
:100520000044004080B584B000AFF860B9607A60E4
:10053000FB68084A934203D0FB68074A934204D100
:100540007A68B968F86800F009F800BF1037BD464E
:1005500080BD00BF001001400044004080B584B061
:1005600000AFF860B9607A60B86800F0A3FA03469B
:10057000BA681946F86800F015FA184B1B68184657
:1005800000F098FA0146154B1B681A46F86800F00F
:1005900009FA134B1B78002B0ED0F86800F024F8F2
:1005A0000E4B1B68184600F085FA01460B4B1B6882
:1005B0001A46F86800F0F6F9786800F07BFA03460E
:1005C0007A681946F86800F0EDF9064A0121F868E2
:1005D00000F0E8F900BF1037BD4680BD00000020E4
:1005E0007C000020D81C000880B584B000AF786083
:1005F000786800F00EF8F860F86800F05BFA0346DF
:10060000FA681946786800F0CDF900BF1037BD468A
:1006100080BD80B483B000AF78607B68084A9342A5
:1006200005D07B68074A934203D1074B02E0074B92
:1006300000E0074B18460C37BD4680BC704700BF32
:100640000044004000100140DC1C0008E41C0008CD
:10065000EC1C000880B485B000AF78607B685B0953
:10066000FB607B6803F01F03BB60FB6803F138236A
:1006700040339B001A680121BB6801FA03F3184656
:10068000FB6803F1382340339B00194642EA00031C
:100690000B6000BF1437BD4680BC704780B500AF0B
:1006A00000F072F800BF80BD80B483B000AF786006
:1006B00039607B68002B06D10F4B1A680E493B68E6
:1006C00013430B6012E07B68012B06D10B4B1A68B9
:1006D0000A493B6813430B6008E07B68022B05D195
:1006E000074B1A6806493B6813430B6000BF0C3781
:1006F000BD4680BC704700BF3038024040380240E1
:100700004438024080B588B000AF1A4A1A4BD31A59
:100710007B611A4B3B61184BFB600023FB610AE0D5
:100720003A69FB691A44F968FB690B4412781A703C
:10073000FB690133FB61FA697B699A42F0D3104A85
:10074000104BD31ABB600F4B7B600023BB6107E0EB
:100750007A68BB69134400221A70BB690133BB611C
:10076000BA69BB689A42F3D3FFF730FD00BF203768
:10077000BD4680BD78000020000000202C1F00082E
:10078000F00100207800002080B500AF00F002F8F2
:1007900000BF80BD80B400AF62B600BFBD4680BC64
:1007A0007047000080B483B000AF78604FF0FF3333
:1007B00018460C37BD4680BC704780B485B000AF8A
:1007C000F860B9607A60002318461437BD4680BCD3
:1007D000704780B483B000AF786000BFFDE780B49D
:1007E00085B000AFF860B9607A607B68184614374E
:1007F000BD4680BC704780B485B000AFF860B9607A
:100800007A607B6818461437BD4680BC704780B458
:1008100085B000AF78600B4B1B68002B02D1094BF1
:10082000094A1A60074B1B68FB60064B1A687B6815
:100830001344044A1360FB6818461437BD4680BC55
:10084000704700BF800000200000000080B582B02B
:1008500000AF7860786800F004F800BF0837BD4644
:1008600080BD80B483B000AF78607B68013BB3F19A
:10087000807F10D20A4A7B68013B1360094B00223B
:100880001A60094B07221A60084B1B68074A43F499
:100890008043136000E000BF0C37BD4680BC70474A
:1008A00014E000E018E000E010E000E0443802400E
:1008B00080B594B000AF7860144B1B68FB64FA6C91
:1008C0007B681344BB6407F10800FB6C104A4021AD
:1008D00000F00CFB0F4B1B6807F1080219460E488D
:1008E000FFF720FE07F10800BB6C0C4A402100F026
:1008F000FDFA084B1B6807F1080219460648FFF786
:1009000011FE00BF5037BD4680BD00BF78000020FB
:10091000081D00080800002000100140141D0008F8
:1009200080B483B000AF78607B680C331B687A6852
:100930000C3243F40053136000BF0C37BD4680BC3B
:10094000704780B483B000AF786039607B680C3347
:100950001A687B680C3319463B6813430B6000BF71
:100960000C37BD4680BC704780B485B000AF78605E
:1009700039607B6808331B68FB60094B1A683B6869
:100980001B01B2FBF3F31B01FB607B6808331A46C3
:10099000FB68136000BF1437BD4680BC704700BFC2
:1009A0000400002080B586B000AFF860B9607A60BE
:1009B0007B683B6100237B610AE03B695A1C3A611A
:1009C0001B781946F86800F00CF87B6901337B61ED
:1009D0007A69BB689A42F0D300BF00BF1837BD46A2
:1009E00080BD80B483B000AF78600B46FB707B683D
:1009F00004331A46FB78136000BF7B681B6803F062
:100A00004003002BF9D000BF00BF0C37BD4680BCAF
:100A1000704790B587B000AFF860B9607A607B68C6
:100A20003B6100237B610AE03C69631C3B61F86821
:100A300000F00EF8034623707B6901337B617A690D
:100A4000BB689A42F0D300BF00BF1C37BD4690BDC3
:100A500080B483B000AF786000BF7B681B6803F090
:100A60002003002BF9D07B6804331B68DBB21846E7
:100A70000C37BD4680BC704780B483B000AF78604F
:100A80007B680C331B687A680C3243F020031360D8
:100A900000BF0C37BD4680BC704780B582B000AF48
:100AA000786000217868FFF79CFF00BF0837BD46DB
:100AB00080BD00BF034613F8012B002AFBD1181A92
:100AC0000138704700000000000000000000000036
:100AD00001F0FF01102A2BDB10F0070F08D010F8EF
:100AE000013B013A8B422DD010F0070F42B3F6D1F3
:100AF000F0B441EA012141EA014122F007047FF00C
:100B000000070023F0E80256083C85EA010586EA62
:100B1000010685FA47F5A3FA87F586FA47F6A5FA9E
:100B200087F68EB9EED1F0BC01F0FF0102F00702AA
:100B300032B110F8013B013A83EA010313B1F8D155
:100B40000020704701387047002D06BF3546033836
:100B5000073815F0010F07D1013015F4807F02BF6F
:100B6000013015F4C03F01300138F0BC704700BFC0
:100B70000348044B834202D0034B03B1184770472C
:100B80007800002078000020000000000548064B97
:100B90001B1AD90F01EBA301491002D0034B03B17B
:100BA00018477047780000207800002000000000FF
:100BB00010B5064C237843B9FFF7DAFF044B13B1A5
:100BC0000448AFF300800123237010BD840000208F
:100BD00000000000B41E000808B5054B1BB1054914
:100BE0000548AFF30080BDE80840FFF7CFBF00BF66
:100BF0000000000088000020B41E000808B5064B65
:100C0000044613B10021AFF30080044B1B6803B10D
:100C100098472046FFF7DDFD00000000D8010020C6
:100C2000002310B50446C0E90033C0E904338360F3
:100C300081814366C2818361194608225C3000F0DD
:100C4000CEF9054B6362054BA362054BE362054B8E
:100C50002462236310BD00BF550F00087B0F0008FE
:100C6000B30F0008D70F0008024A0349034800F0F9
:100C7000EFB800BF14000020391B0008240000203A
:100C800041680C4B994210B5044601D000F054FF66
:100C9000A168094B994202D0204600F04DFFE1685F
:100CA000064B994204D02046BDE8104000F044BFF6
:100CB00010BD00BFA000002008010020700100202E
:100CC00008B54B6EDA0705D48B899B0502D4886D75
:100CD00000F053FA002008BD08B54B6EDA0705D4C2
:100CE0008B899B0502D4886D00F04DFA002008BD69
:100CF00010B50B4B0B4C0C4A1A6020460022042105
:100D0000FFF78EFF04F1680001220921FFF788FF39
:100D100004F1D0000222BDE810401221FFF780BF8D
:100D2000D8010020A0000020690C0008014800F054
:100D300024BA00BFE7010020014800F024BA00BF38
:100D4000E7010020F8B50746FFF7F0FF234B1B68CB
:100D50000BB9FFF7CDFF224ED6E90134013B0FD589
:100D60003568002D37D14FF4D671384600F078FA47
:100D7000044628BB3060FFF7DFFF0C233B601BE01D
:100D8000B4F90C50D5B9174BE36004F1580065660F
:100D900000F0EFF9FFF7D0FFC4E90155C4E90455AD
:100DA0002560A5610822294604F15C0000F017F9CE
:100DB000C4E90D55C4E912552046F8BD6834CDE7A5
:100DC0000423056043600C30A0604FF4D0722946C4
:100DD00000F005F934603668BEE700BFD801002096
:100DE000140000200100FFFF10B50446FFF79EFF2E
:100DF000236A1BB1BDE81040FFF79EBF044B23627E
:100E0000044B1B68002BF5D1FFF772FFF2E700BF20
:100E1000810C0008D801002008B5FFF787FFBDE866
:100E20000840024A0249002000F012B814000020D5
:100E3000C10C000808B5044A0449002000F008F875
:100E4000BDE80840FFF778BF14000020D90C000867
:100E50002DE9F8430746884614460026D4E9019553
:100E6000B9F1010905D52468002CF7D13046BDE859
:100E7000F883AB89012B07D9B5F90E30013303D0C4
:100E800029463846C04706436835E9E708B430B517
:100E9000141E9CB0054608DA8B2303604FF0FF3028
:100EA0001CB0BDE8304001B070474FF40273ADF89C
:100EB000143014BF04F1FF332346049307934FF615
:100EC000FF7302910691ADF816301F9A20AB02A96C
:100ED000019300F019FB431CBCBF8B232B60002C3B
:100EE000DED0029B00221A70DAE700000CB430B5A5
:100EF000174B0C1E1D689DB008DA8B232B604FF03A
:100F0000FF301DB0BDE8304002B070474FF40273AF
:100F1000ADF8143014BF04F1FF3323460493079354
:100F20004FF6FF7302900690ADF81630209A21AB71
:100F300002A92846019300F0E7FA431CBCBF8B23AB
:100F40002B60002CDDD0029B00221A70D9E700BF75
:100F50002000002010B50C46B1F90E1000F0C0F8CA
:100F60000028ABBF636DA3891B1823F48053ACBF6B
:100F70006365A38110BD002070472DE9F0411F4635
:100F80008B89DB0505460C46164605D5B1F90E10D2
:100F90000223002200F092F8A389B4F90E1023F482
:100FA0008053A38132463B462846BDE8F04100F01D
:100FB000A9B810B50C46B1F90E1000F07FF8431C2B
:100FC000A38915BF606523F4805343F48053A38144
:100FD00018BFA38110BDB1F90E1000F009B802448A
:100FE0000346934200D1704703F8011BF9E7000064
:100FF00038B5064D0023044608462B60FFF7D2FBA8
:10100000431C02D12B6803B1236038BDDC010020F2
:10101000294B1B68834270B504464BD0C369ABB102
:10102000DB686BB10025E369DB68595900293BD1C6
:101030000435802DF7D1E3692046D96800F0A4F883
:10104000E369196811B1204600F09EF8616911B199
:10105000204600F099F8E16911B1204600F094F8BB
:10106000216B11B1204600F08FF8616B11B1204661
:1010700000F08AF8A16B11B1204600F085F8A16C50
:1010800011B1204600F080F8616C11B1204600F0EB
:101090007BF8E16A11B1204600F076F8236A4BB183
:1010A0002046BDE8704018470E68204600F06CF8F6
:1010B0003146BBE770BD00BF2000002038B5074DAA
:1010C00004460846114600222A601A46FFF775FBBF
:1010D000431C02D12B6803B1236038BDDC01002022
:1010E00038B5074D04460846114600222A601A46C4
:1010F000FFF775FB431C02D12B6803B1236038BD99
:10110000DC01002038B5074D044608461146002290
:101110002A601A46FFF76FFB431C02D12B6803B10C
:10112000236038BDDC01002070B50D4D0D4C641BF3
:10113000A4100026A64209D10B4D0C4C00F0AEFEC7
:10114000641BA4100026A64205D170BD55F8043BCF
:1011500098470136EEE755F8043B98470136F2E729
:10116000000000000000000000000000000000007F
:10117000704770477047704770477047012070474D
:10118000012070477047704738B50546002941D0A7
:1011900051F8043C0C1F002BB8BFE41800F0D0F845
:1011A0001D4A136833B9636014602846BDE83840AF
:1011B00000F0CCB8A34208D9206821188B4201BFA7
:1011C00019685B6809182160EDE71A465B680BB186
:1011D000A342FAD911685018A0420BD120680144EB
:1011E000501883421160E0D118685B68536008446E
:1011F0001060DAE702D90C232B60D6E720682118AB
:101200008B4204BF19685B68636004BF09182160E2
:101210005460CAE738BD00BFEC01002070B50F4E26
:101220000C463168054611B900F0DCFC30602146FF
:10123000284600F0D7FC431C03D14FF0FF34204672
:1012400070BDC41C24F00304A042F8D0211A284623
:1012500000F0C8FC0130F2D1EFE700BFE801002048
:10126000F8B5CD1C25F0030508350C2D38BF0C252D
:10127000002D064601DBA94203D90C233360002070
:10128000F8BD2E4F00F05CF83B681C4634BB294685
:101290003046FFF7C3FF431C04464DD13C6821464E
:1012A000002940D1002C41D023683046E71800F0D7
:1012B00099FC87423AD123680335ED1A25F00305DE
:1012C00008350C2D38BF0C2529463046FFF7A6FF00
:1012D00001302BD023682B4423600EE02268521B80
:1012E0001ED40B2A16D96119A342256018BF596074
:1012F000636808BF396062514B60304600F026F8E1
:1013000004F10B00231D20F00700C21A1CBF1B1A9A
:10131000A350B5E76268A3420CBF3A605A60ECE79D
:1013200023466468B2E70C464968B9E70C2333608A
:10133000304600F00BF8A2E70560DEE7EC01002084
:101340000148FFF71ABF00BFE40100200148FFF782
:101350001ABF00BFE40100202DE9F0478E681F4648
:10136000BE420B6882460C4690462DD8B1F90C203F
:1013700012F4906F26D06569096905EB4505A3EB6A
:10138000010905EBD5757B1C4B446D109D4238BFA0
:101390001D46530527D52946FFF762FF064660B371
:1013A00021694A4600F02EFCA38923F4906343F0A0
:1013B0008003A381266165614E44A5EB0905266083
:1013C000A5603E46BE4200D93E46206832464146B0
:1013D00000F0EEFBA3689B1BA360236833442360EB
:1013E0000020BDE8F0872A4600F01AFC06460028D7
:1013F000E0D121695046FFF7C7FE0C23CAF8003040
:10140000A38943F04003A3814FF0FF30E9E79368DD
:101410002DE9F74FD2F800A080460C461746002B66
:1014200057D1002000237B6003B0BDE8F08FDAF8CD
:101430000030DAF804B001930AF1080AA6682068BF
:10144000BBF1000FF3D0B3452ED3B4F90C2012F446
:10145000906F29D021696569A0EB010905EB45056D
:1014600005EBD57509F101006D105844854238BF70
:101470000546530531D529464046FFF7F1FE06469D
:10148000002835D04A46216900F0BCFBA28922F42D
:10149000906242F08002A281266165614E44A5EB14
:1014A00009052660A5605E465E4528BF5E46324659
:1014B0000199206800F07CFBA268921BA260226860
:1014C00032442260BA68A2EB0B03BB60002BAED1A2
:1014D000A7E7002301939B46B0E72A46404600F069
:1014E0009FFB06460028D7D121694046FFF74CFEF6
:1014F0000C23C8F80030A38943F04003A3810023E4
:10150000BB604FF0FF308DE72DE9F04F98468B8997
:101510001B069DB007460D46144610D50B6973B9DE
:101520004021FFF79DFE2860286130B90C233B6005
:101530004FF0FF301DB0BDE8F08F40236B610023FA
:10154000099320238DF82930CDF80C803023DFF863
:101550009C818DF82A304FF0010923469A4613F8F2
:10156000012B0AB1252AF9D1BAEB040B0BD05B464B
:10157000224629463846FFF7EFFE013000F0A780EB
:10158000099A5A4409929AF80030002B00F09F8083
:1015900000234FF0FF32CDE905230AF1010A04933D
:1015A00007938DF853301A935446052214F8011B03
:1015B0004E48FFF78DFA049AD8B9D00644BF2023CD
:1015C0008DF85330110744BF2B238DF853309AF810
:1015D00000302A2B15D0079A544600204FF00A0CF1
:1015E000214611F8013B303B092B4BD9B0B1079292
:1015F00014E0A0EB080309FA03F313430493A24693
:10160000D2E7039B191D1B680391002BBBBF5B42F4
:1016100042F0020207930793B8BF049223782E2B5F
:101620000AD163782A2B32D1039B1A1D1B680392BF
:1016300043EAE37302340593DFF8B4A02178032270
:101640005046FFF745FA38B1049BA0EB0A00402250
:10165000824013430134049314F8011B25488DF88C
:1016600028100622FFF734FA002836D0224B1BBB85
:10167000039B073323F0070308330393099B334489
:1016800009936AE70CFB02320C460120A8E700230D
:101690000134059319464FF00A0C204610F8012B2F
:1016A000303A092A03D9002BC6D00591C4E70CFBB8
:1016B000012104460123F0E703AB00932A460F4BB8
:1016C00004A93846AFF30080421C0646D6D1AB8948
:1016D0005B063FF52DAF09982CE703AB00932A4634
:1016E000064B04A9384600F079F8EDE7451E0008DE
:1016F0004B1E00084F1E0008000000005913000890
:101700002DE9F047164698468A680B69DDF8209067
:101710009342B8BF1346336091F8432007460C4606
:101720000AB1013333602368990642BF336802333C
:101730003360256815F0060506D104F1190AE3683F
:1017400032689B1AAB4226DC94F843302268003B97
:1017500018BF012392062BD404F1430241463846B8
:10176000C84701301ED02368226903F00603042B0A
:1017700002BFE5683368ED1AA3680CBF25EAE5757A
:1017800000259342C4BF9B1AED1800261A34B542B7
:101790001AD1002008E00123524641463846C84786
:1017A000013003D14FF0FF30BDE8F0870135C6E7C7
:1017B000E1185A1C302081F84300224494F8451067
:1017C00082F843100233C7E70123224641463846D8
:1017D000C8470130E6D00136D9E700002DE9FF47C0
:1017E0000F7E0C9D782F914680460C469A4601F15B
:1017F000430207D8622F0AD8002F00F0E080582F4C
:1018000000F0BB8004F1420684F842703AE0A7F190
:101810006303152BF6D801A151F823F075180008C1
:1018200089180008051800080518000805180008A0
:101830000518000889180008051800080518000890
:101840000518000805180008A5190008191900084E
:101850005B1900080518000805180008C7190008DA
:1018600005180008191900080518000805180008CF
:10187000631900082B681A1D1B682A6004F14206D0
:1018800084F842300123ABE0236829681F0601F188
:101890000400286001D50D6803E05E06FBD5B1F9B0
:1018A00000506168002D7ADA2D20002984F8430069
:1018B000A1602DDA5E486D420A231646B5FBF3F1AE
:1018C00003FB1157C75D06F8017D2F46BB420D464D
:1018D000F4D9082B0BD12368DF0708D52369616889
:1018E0009942DEBF302306F8013C06F1FF36921B19
:1018F0002261CDF800A04B4603AA21464046FFF7DF
:10190000FFFE013071D14FF0FF3004B0BDE8F08729
:1019100023F004032360CDE72B682068191D29609C
:10192000050601D51D6802E04106FBD51D8840482B
:101930006F2F14BF0A230823002184F84310666820
:10194000A660002EB9DB216821F004012160002D82
:10195000B3D1002EB1D11646BBE7236843F0200374
:1019600023603448782784F84570296823680E1D61
:101970002E601E0603D50D6804E02D48F3E75D06D2
:10198000F9D50D88D90744BF43F0200323600DB17A
:101990001023D1E7236823F020032360F8E72448CD
:1019A0000A23CCE72B6826686169181D2860350674
:1019B0001B6801D5196002E07006FBD51980002371
:1019C0002361164695E72B681A1D2A601E68626817
:1019D00000213046FFF77CF808B1801B6060636827
:1019E0002361002384F8433083E723693246494664
:1019F0004046D047013086D023689B0714D4E06866
:101A0000039B9842B8BF18467FE7012332464946F8
:101A10004046D04701303FF476AF0135E368039983
:101A20005B1AAB42F1DCEAE7002504F11906F5E7A1
:101A3000561E0008671E0008B1F90C20F8B51707FC
:101A400005460C4656D44B68002B02DC0B6C002B71
:101A50003DDDE66A002E3AD0002312F480522F6852
:101A6000216A2B6025D0626DA389580705D563686C
:101A7000D21A636B0BB1236CD21A216AE66A002377
:101A80002846B047411C24D00023636023692360AB
:101A9000A389DA0400D56065616B2F60B9B104F1E8
:101AA0004403994202D02846FFF76EFB002363638C
:101AB0000DE001232846B047461C0246D4D12B68CE
:101AC000002BD1D01D2B01D0162B2AD12F60002046
:101AD0002EE02A68B4F90C3042B11D2A01D0162A32
:101AE00021D10023636023692360D5E76260226906
:101AF0002260CEE70F69002FE9D093070E6808BF78
:101B00004B690F6018BF0023F61B8B60002EDEDDD3
:101B1000216AD4F828C033463A462846E0470028D0
:101B200007DCB4F90C3043F04003A3814FF0FF30E1
:101B3000F8BD0744361AE9E738B50B6905460C4687
:101B400013B90025284638BD18B1036A0BB9FFF751
:101B50004BF9B4F90C30002BF3D0626ED00704D4EB
:101B6000990502D4A06DFFF708FB28462146FFF730
:101B700063FF636EDA070546E4D4A3899B05E1D4CD
:101B8000A06DFFF700FBDDE7014620B9044A0549D7
:101B90000548FFF75DB9054B1868FFF7CDBF00BFDB
:101BA00014000020391B0008240000202000002021
:101BB000884210B501EB020402D98442234607D8BB
:101BC000431EA14208D011F8012B03F8012FF8E7BA
:101BD000024401468A4200D110BD13F8014D02F8BB
:101BE000014DF7E738B5064D0023044608462B6043
:101BF000FEF70DFE431C02D12B6803B1236038BDF4
:101C0000DC0100200A44914200F1FF3300D170470B
:101C100010B511F8014B03F8014F9142F9D110BDF5
:101C20002DE9F041804615460C4621B9BDE8F0414A
:101C30001146FFF715BB2AB9FFF7A6FA0024204684
:101C4000BDE8F08100F01AF88542064602D8B5EBEF
:101C5000500FF4D829464046FFF702FB07460028FC
:101C6000ECD0B5422A46214628BF3246FFF7CAFFCC
:101C700021464046FFF788FA3C46E0E751F8043C2D
:101C8000181F002BBCBF0B58C018704768617264E6
:101C90006661756C745F68616E646C6572000000EB
:101CA0006972715F6C69737400000000666C617327
:101CB00068202D3E207372616D3A203078256C5873
:101CC000202D3E203078256C580000007469636B2D
:101CD000733A20256C6400000A00000055534152FD
:101CE000543100005553415254320000554E4B4E72
:101CF0004F574E204348414E4E454C003A2000007D
:101D00007469636B7300000073746172743A202508
:101D10006C640000656E643A20256C64000000006D
:101D20003E410C41114127413641034106411541D5
:101D30000F410E41264113412941024119410A41F7
:101D40000B410000002020202020202020202828D7
:101D5000282828202020202020202020202020206B
:101D600020202020208810101010101010101010AB
:101D700010101010100404040404040404040410DB
:101D80001010101010104141414141410101010169
:101D90000101010101010101010101010101010133
:101DA000101010101010424242424242020202023F
:101DB0000202020202020202020202020202020203
:101DC00010101010200000000000000000000000B3
:101DD0000000000000000000000000000000000003
:101DE00000000000000000000000000000000000F3
:101DF00000000000000000000000000000000000E3
:101E000000000000000000000000000000000000D2
:101E100000000000000000000000000000000000C2
:101E200000000000000000000000000000000000B2
:101E300000000000000000000000000000000000A2
:101E40000000000000232D302B2000686C4C006542
:101E500066674546470030313233343536373839D6
:101E60004142434445460030313233343536373809
:101E700039616263646566003E410C41114127414E
:101E800036410341064115410F410E4126411341A0
:101E90002941024119410A410B410000F8B500BF38
:101EA000F8BC08BC9E467047F8B500BFF8BC08BC3B
:101EB0009E4670471000000000000000017A5200AA
:101EC000027C0E011B0C0D00100000001800000029
:101ED000E4EBFFFF1000000000470E0010000000C0
:101EE00000000000017A5200027C0E011B0C0D0064
:101EF0002C00000018000000D8EBFFFF9E0000003F
:101F000000510E1084048503860287015BC7C6C595
:101F1000C40E004D0E00420E0053C7C6C5C40E00CD
:0C1F200000000000BCE1FF7F0100000099
:101F2C00FC1C00080024F400001D00082000000028
:101F3C00000000000000000003000000A0000020D2
:101F4C002400002000000000A00000200801002058
:101F5C0070010020000000000000000000000000E4
:101F6C000000000000000000000000000000000065
:101F7C000000000000000000000000000000000055
:101F8C000000000000000000000000000000000045
:081F9C00D90B0008B10B00088D
:0400000508000705E3
:00000001FF
